:10000000500C040000000000000000000000000090
:1000100000000000000000000000000000000000E0
:100020000000000000000000F80B000000000000CD
:1000300000000000AA0A000000000000000000000C
:10004000280C00000000000000000000000000007C
:1000500000000000000000000000000000000000A0
:100060000000000000000000000000000000000090
:10007000000000000000000000000000140F00005D
:100080000000000000000000000000000000000070
:100090000000000000000000000000000000000060
:1000A0000000000000000000000000000000000050
:1000B0000000000000000000000000000000000040
:1000C0000000000000000000000000000000000030
:1000D0000000000000000000000000000000000020
:1000E0000000000000000000000000000000000010
:1000F0000000000000000000000000000000000000
:1001000000000000000000000000000000000000EF
:1001100000000000000000000000000000000000DF
:1001200000000000000000000000000000000000CF
:1001300000000000000000000000000000000000BF
:1001400000000000000000000000000000000000AF
:10015000000000000000000000000000000000009F
:10016000000000000000000000000000000000008F
:10017000000000000000000000000000000000007F
:10018000000000000000000000000000000000006F
:10019000000000000000000000000000000000005F
:1001A000000000000000000000000000000000004F
:1001B000000000000000000000000000000000003F
:1001C000000000000000000000000000000000002F
:1001D000000000000000000000000000000000001F
:1001E000000000000000000000000000000000000F
:1001F00000000000000000000000000000000000FF
:1018A0006F8B2000F0FF200020A0B7000000200078
:1018B00034A0B700400020004420B7000400FA0024
:1018C000BE0F020000000000C80F02000000000070
:1018D0008A1F78008B1F78008C1F7800F0FF2F0084
:1018E000A8A2B700A842A900A8A2A900A8E2A9003E
:1018F000C622EF00C642A800C6A2A800C6E2A80001
:10190000D902A8008C00A8008420EF008620EF00F8
:1019100020C0B30080407800602A200090C068009A
:10192000EFC06000602A200090C06800602A20009C
:1019300001487800AA22EF00A022EF0000C4B30003
:1019400080407800002A200090C0680000CEB300DC
:1019500080C06000002A200090C06800002A20009B
:10196000014878000A21EF00007D20000EA1B70099
:101970000000280012A1B700A222EF00202A2000B8
:1019800090407800C0C3B30080C07000202A2000BF
:101990000148780080002000A4A2B7008C60A80055
:1019A0000021EF0020A1270002A1B70000032800BA
:1019B00004A1B7008CC0A8000621EF00E040800021
:1019C0000CA1B7000002280010A1B7008EA0A8004B
:1019D0001421EF00E04080001AA1B70000022800A7
:1019E0001EA1B7000020EF00B0448800CA02A90081
:1019F000CA22A900CA62A9000FFE07001AC0B300DC
:101A0000D7FD0700CAC0B300D5FD0700A1E2A800BA
:101A10001AC0B300D2FD0700B04480006000E100AE
:101A200088003A0002002000832C2400C04480007B
:101A3000D14480005EFB070090448800A1448800E8
:101A400002002000030A2400204580003145800068
:101A500057FB07000045880011458800CA62AF00A7
:101A6000130037000000200001F82300924480009A
:101A7000A344800015FB0700000798001107980099
:101A8000E0408000CF80DE000081EB001FFE0700F9
:101A90000E0190009E019000E0FB07000005BE00D3
:101AA00075FE0700C8FA07000CA1B7000B0037004D
:101AB000E0408000CF80DE000081EB0013FE0700D5
:101AC00092448000A3448000D4FB07000005BE00C0
:101AD00069FE0700BCFA07000CA1B700CA02AF00FC
:101AE000130037000000200001F8230002458000A9
:101AF00013458000F5FA07000007980011079800C9
:101B0000E0408000CF80DE000081EB00FFFD070099
:101B10000E0190009E019000C0FB07000005BE0072
:101B200055FE0700A8FA07001AA1B7000B003700FE
:101B3000E0408000CF80DE000081EB00F3FD070075
:101B40000245800013458000B4FB07000005BE007D
:101B500049FE07009CFA07001AA1B700EC8120009B
:101B60001B0020001A00200050FD0700D2CC2C00E2
:101B7000C3DC2300E0448000F1448000CEFA07007B
:101B80000000E0000060EF0001003D000060EC009C
:101B90000040E200040032000020EF000220EF00CD
:101BA000E0448800F14488002C882000EA4480004A
:101BB000FB44800026FC07000200200003F82300FD
:101BC000E0448000F1448000BBFA07000000E00020
:101BD0000060EF0001003D000060EC000040E2000A
:101BE0000F003200018820002088200090487800F3
:101BF000118820005088200090487800218820001B
:101C000000C3B3008048780041882000008820008D
:101C10009048780051882000108820009048780073
:101C20002C8820001B0020002A0020001FFD070038
:101C3000BC8520005B0020002A0020001BFD07005F
:101C40006B00370002002000030A2400E0448000FB
:101C5000F1448000D6FA070090448800A14488002F
:101C600002002000030A2400204580003145800046
:101C7000CFFA07000045880011458800CA02AF006E
:101C8000130037000000200001F823009244800078
:101C9000A34480008DFA0700000798001107980000
:101CA000E0408000CF80DE000081EB0097FD070060
:101CB0000E0190009E01900058FB07000005BE0039
:101CC000EDFD070040FA07000CA1B7000B0037003C
:101CD000E0408000CF80DE000081EB008BFD07003C
:101CE00092448000A34480004CFB07000005BE0026
:101CF000E1FD070034FA07000CA1B700CA22AF00CB
:101D0000130037000000200001F823000245800086
:101D1000134580006DFA070000079800110798002E
:101D2000E0408000CF80DE000081EB0077FD0700FF
:101D30000E0190009E01900038FB07000005BE00D8
:101D4000CDFD070020FA07001AA1B7000B003700ED
:101D5000E0408000CF80DE000081EB006BFD0700DB
:101D600002458000134580002CFB07000005BE00E3
:101D7000C1FD070014FA07001AA1B70002002000F5
:101D800003222400C0448000D144800054FA07009C
:101D90000000E0000060EF00010034000060EC0093
:101DA0000040E2000A003200CA62A8007C842000E1
:101DB0001B0020001A002000BCFC07003C83200010
:101DC0001B0020002A002000B8FC07000800370094
:101DD000CC8620001B0020001A002000B3FC070066
:101DE0000C8020001B0020002A002000AFFC070010
:101DF00078002000B7B925000E20ED00FEFF3A0064
:101E00001020ED00FCFF3A00000000000000000080
:101E1000FFFE37004F067800CF0578004F057800A9
:081E20000080FA00FFFF37000B
:101238000000FA0041FD070040FD0700D882A90020
:10124800D8A2A900D862A900D842A900D822A9002A
:10125800D802A900DC82A900DCA2A900DC02A9004E
:10126800DC22A900DC42A900DC62A900DC42A8005B
:10127800DC62A8002AFD070024FD070028FD0700FE
:1012880022FD070026FD070020FD0700DC62A900FB
:1012980023FD07001DFD070021FD0700DC42A90012
:1012A800DC02A8001EFD070018FD0700DC02A900EB
:1012B800DC62A8001AFD0700DC62A90018FD07001F
:1012C80012FD070016FD0700DC62A80014FD0700E8
:1012D8000EFD0700DC62A90011FD0700DC02A80072
:1012E800DC22A800DC42A800DC62A8000CFD070094
:1012F80006FD0700808A20001000A0000080FA0088
:0413080000000600DB
:10074400A7A021000E20ED00FEFF3A0000000000EB
:08075400000000000000060097
:100728000000FA00DC82A800ECFE0700DC82A900C9
:0C073800EAFE07000080FA000000060046
:0C02E40000000000000000000000060008
:10071400771E21000E20ED00FEFF3A0000000000CD
:0407240000000600CB
:101160000000FA008A80FB0002E0AE00DC02A90069
:1011700002E0AF00DC02A80002C0AE00DC22A90041
:1011800002C0AF00DC22A80002A0AE00DC42A90031
:1011900002A0AF00DC42A8000280AE00DC62A90021
:1011A0000280AF00DC62A800808A20001000A60048
:1011B000DCA2A8001000A700DCA2A9005AFD0700CD
:1011C0000260AE00DC02A9000260AF00DC02A800F1
:1011D0000240AE00DC22A9000240AF00DC22A800E1
:1011E0000220AE00DC42A9000220AF00DC42A800D1
:1011F0000200AE00DC62A9000200AF00DC62A800C1
:10120000808A20001000A600DCA2A8001000A70021
:10121000DCA2A90044FD0700808A20001000A6007F
:10122000020037003BFD0700010037004BFD0700BF
:081230000080FA000000060036
:10075C00970220000E20ED00FEFF3A000000000082
:08076C0000000000000006007F
:101478000000FA00C758DE000001EB00F00F200062
:1014880080806000F0072000008050008000780015
:101498006000E10010003D000420EF000620EF008E
:1014A8000A00BE0082FC07000000E0000060EF00B8
:1014B80001003D000060EC000040E2000300320043
:1014C8000000200001F82B001E0037000020EF006C
:1014D8000220EF001B0037007808E1000200360008
:1014E8000A00BE00170037008A9FBE000A00BE002F
:1014F80033FC07000081EB0082FF07004F05BE00A8
:101508000002BE00849FBE000A01BE0072FC0700F4
:101518000000E0000060EF00010034000060EC0013
:101528004F02BE000040E200050032000200200029
:1015380003F823000400BE0062FC07000100370026
:0C1548000400BE000080FA000000060055
:1006B8000000FA0014002000CFFE07000080FA00B6
:0406C8000000060028
:100200000000FA00020007006E0104000000000078
:10021000841F7800140007004F007800110033009D
:10022000F0FF2F00838F6C0006003B000405650083
:100230000A00A7000800370009F0A60010002000FF
:1002400008003700820F5400838F5C0003003900E0
:100250001000200001003E000000200009F0A7006F
:100260000000EA00000006000084BE00060007004F
:100270000083BE000485BE000280BE0002000700AD
:10028000844F750000000600C70ADE00F107B200C7
:10029000F50FB20008003200E1CF42000200320048
:1002A00002E0A80024000500810F70000100320068
:1002B0000408050044000500810F700002003A00A8
:1002C000140005008502E9000000400081C04800DC
:1002D000FCFF3B0002E0A800240005000080FA00BB
:0402E0000000060014
:1005C8000000FA00020007005803040000000000C1
:1005D8000081BE001F0007000470A70003F0A100FF
:1005E8006509B100160032000D0035006828E100E9
:1005F80006003500F0FF2F00F1FF27000600E2009B
:1006080013003B0001002800000005000000400026
:10061800818048008502E900FCFF3A0008003700A5
:10062800F88F420002003C008000EB00000005004B
:100638008100D1000080D3008502E800FCFF3A0069
:100648000600E20002003B0060001000E080180095
:1006580000000600C70ADE00F107B200F50FB2007D
:1006680008003200E1CF42000200320002E0A80098
:1006780024000500810F7000010032000408050005
:1006880044000500810F700002003A0014000500C4
:100698008502E9000000400081C04800FCFF3B00E3
:1006A80002E0A800240005000080FA00000006000F
:10130C000000FA0002000700380A04000000000088
:10131C000400E20006003A000005EB000200E200C7
:10132C000F003E000000E200270032000C003700E6
:10133C00A10088000200E2000400350008003C0017
:10134C000000E200200032000500370060001000B1
:10135C00E080180002003B0001F02C001A0037005E
:10136C000084BE006011B8006B0920000982CF0018
:10137C00020039000882CF000441B00069425200DB
:10138C000E00320008003B00828171006101640094
:10139C008904D1000884D3008B05E8000442E800DE
:1013AC00F9FF3A00050037000804440089844C001A
:1013BC008B05E9000442E900FBFF3A00030007003B
:1013CC000AF0A70003E0A80000000600810020003E
:1013DC00618055000B003D000B00200061FE2F00CA
:1013EC000100E1001D003400828171006101640084
:1013FC008904D1000884D3000000E800FAFF3A0009
:10140C0071002000610064000300700002006000A5
:10141C000900320061044400E0844C000988A500F6
:10142C00050032008B05E8006808E10002003A0074
:10143C008904D1000884D300F20F20000258E10087
:10144C0005003D00C75DDD00F907B200898075001D
:10145C0008008800000006000BF827001B0088001D
:0C146C00000005000080FA0000000600EF
:1006E0000000FA00F4FF2F00C5FE07000080FA00AA
:0406F0000000060000
:1006CC000000FA0007E0AA0006FF07000080FA000D
:0406DC000000060014
:1002F0000000FA0002000700E00204000000000015
:10030000889FBE008A9FBE008C1F7800590007009E
:10031000600033006450E1004F0032006420E100CF
:100320005200320003826C0007003B000905D00038
:100330000306D000820F54000C065D000200390055
:100340000200320039008800C30088008582550011
:1003500004003D000003FD008103FD008502EA006A
:100360008B854200840F720002003B006000100089
:10037000E08018006011B8000005EB007A28E10069
:100380000A00390006008800C75DDD00F707B200EB
:10039000878075002D003700828171002A00880057
:1003A000610560008180D1000080D3008502E900F2
:1003B000F9FF3B00060440008784480002003B0030
:1003C00060041400E0841C000988A30007003200C8
:1003D0008A81710082817100610164008904D10009
:1003E0000884D3008B05E800170037000978A300C4
:1003F00013003A001600E200130034008B05E900F8
:100400000804440089844C000A4474000978A3005D
:100410000D003A001600E200070034008B05E900E9
:100420000804440089844C0001003A000B002000BD
:100430000978A300F7FF32000001EB00020037004B
:10044000828171002A008800220007000CF0A700BA
:1004500003E0A800180037006420E10002003A0021
:10046000838F6C00180033000881BE000280BE003C
:10047000110037000084BE003C0007000083BE006E
:100480000485BE000280BE0038000700844F75005E
:10049000000006000280BE006450E1000500360046
:1004A0006420E100020036000968A30001003A0060
:1004B0000880BE0002C0A8004F0678004F05BE00AD
:1004C0004F04BE0000000600F0FF2F00F1FF2700E0
:1004D000F9FF370081002000618055000B003D00CE
:1004E0000B00200061FE2F000100E1001D00340020
:1004F00082817100610164008904D1000884D30005
:100500000000E800FAFF3A0071002000610064007A
:100510000300700002006000090032006104440022
:10052000E0844C000988A500050032008B05E80036
:100530006808E10002003A008904D1000884D30071
:10054000F20F20000258E10005003D00C75DDD000C
:10055000F907B200898075000800880000000600D5
:100560000BF827001B00880000000500C70ADE000A
:10057000F107B200F50FB20008003200E1CF4200EF
:100580000200320002E0A80024000500810F700084
:10059000010032000408050044000500810F7000CE
:1005A00002003A00140005008502E9000000400046
:1005B00081C04800FCFF3B0002E0A80024000500C9
:0805C0000080FA0000000600B3
:1010AC000000FA008A1F78000A0037000A082000A6
:1010BC00110037000A0C20000F0037004A092000ED
:1010CC000D0037004A0D20000B0037000A082000E5
:1010DC00090037006150E100F4FF32006250E1007A
:1010EC00F4FF32006350E100F4FF32006450E10081
:1010FC00F4FF3200F5FF3700618055000000450019
:10110C00000578000045780012000700808A200056
:10111C001000A1000420EF00020046001004E000C3
:10112C0007003200020046008A1F78001045780044
:10113C006DFD07004F0578000420EC00F6FF37002A
:10114C00808A20001000A0004F0578000080FA0073
:04115C000000060089
:1006F4000000FA00808A20001000A1009702070081
:10070400808A20001000A0000080FA00000006008B
:100C50000600FA008A1F78008B1F78000000200031
:100C60004047980000002000504798000A0798006D
:100C70001B0798000E0190009E019000F0FF2F00CE
:100C8000F1FF2F000010E1000198E10005003A009B
:100C90008B8120000C057800B6FE070030C0B30041
:100CA000FE00370016C0B30060004700630040003C
:100CB0001040780000E0AE000D00370060004700F3
:100CC000630140009280FB00000820000080680063
:100CD00000497800E1404300D0C2B300004E7800E4
:100CE00061004600000678000142780001003700EC
:100CF000064278000E0090009E0090006000E10027
:100D00006088E10005003A00AB8620000C05780001
:100D100098FE07000020EF00E00037000E01900071
:100D20009E0190000000200001F827000010E10063
:100D30000198E10005003A004B8120000C05780085
:100D40008CFE070004407800D40037008C1F780028
:100D50008A9FBE000200200003F823000E009000CE
:100D60009E00900054FE07000000E0000060EF00CD
:100D700001003D000060EC004F05BE004F0678000A
:100D80000040E2000F0032008C1F78008A9FBE00F6
:100D90000E0090009E00900002002000031224002C
:100DA0001EFF07004F05BE004F06780000079800A1
:100DB00011079800DE4090006500470061C85000B0
:100DC000E2FF37008C1F78008A9FBE0002002000DF
:100DD000031224000E0090009E00900040FE0700C9
:100DE0000000E0000060EF00010035000060EC0052
:100DF0004F05BE004F0678000040E2000F003200B1
:100E00008C1F78008A9FBE000E0090009E0090000C
:100E1000D2CC2C00C3DC230000FF07004F05BE002E
:100E20004F0678000007980011079800DE409000F8
:100E30006500470061C84000E2FF370060014700DD
:100E40003200D000A280D20000079800110798005D
:100E5000600047006300400090407800F0C7B30096
:100E600000C1500060004700E300400010C0B30024
:100E7000804878008281FB00600147001200BE00BC
:100E80008301E900030035000000D0008180D2001A
:100E9000FBFF37000007980011079800600047002B
:100EA00063004000010320001080FB000080400030
:100EB000004E780061004600000678005E40900019
:100EC0006104E100040035005E4090006604E1002A
:100ED00001003C0006003700E0C2B300004E78007D
:100EE000610046000006780010C0B300404798003B
:100EF00065C0B300602CE1002C00320060004700A8
:100F0000E30040000020EF008048780060004700C8
:100F1000B001D0002082D2008301D0000482D20030
:100F20006001470032804100A2004A00000798009B
:100F300011079800600147003200D000A280D20063
:100F40000007980011079800600047006300400008
:100F5000010320001080FB0000804000004E78005C
:100F600061004600000678004E4090006004E100F9
:100F70000B003A005E4090000060ED005047980082
:100F80006004E10006003A00E0C2B300004E7800C1
:100F9000610046000006780010C0B300404798008A
:100FA00061C0520080427800D2FF3700F0FF2F006E
:100FB000000046009040780000C3B300000CE10040
:100FC00003003A006100560000067800F7FF370082
:100FD000F0FF2F000000460090407800E0C2B30010
:100FE000000CE10002003A006100560000067800A3
:100FF0005E4090006004E1002500320050C6B3005E
:10100000004E780061004600000678005E409000C7
:101010006004E10007003D00D0C2B300004E78003C
:101020006100460000067800DE4090006500470041
:1010300060C81000DE4190005E4090006904E1004D
:101040000A0036000380FB00A20020001100090006
:101050000200D8008000780000032000010040005A
:10106000004E780061004600000678000380FB0017
:10107000A2002000110009000200D8000003200097
:1010800001004000004E7800610046000006780034
:101090000020EF00004E78000020EF00CF05780020
:0C10A0004F0578000080FA0000000600F8
:100774000000FA000A00780000017800E10140005E
:100784008B0078006180450080057800114978006D
:100794001204E0000200320003007800F6FF370084
:0C07A4000A0078000080FA000000060047
:100A1C000000FA0002000700240604000000000099
:100A2C00889FBE008A9FBE008C1F78003000070094
:100A3C003700330003866C006450E1002400320060
:100A4C006420E100270032006150E10022003200F6
:100A5C006120E100210032008B854200EB07B100E0
:100A6C000134B800003AB8000804420089844A00F6
:100A7C00013AB8000030B8008880400009014A00F3
:100A8C00040033000000400081804800020149004E
:100A9C008B05E900C909DD008301700001003200FB
:100AAC0013002000C814DE004814DD004709DE00E6
:100ABC001200B200C808DE00088470002400070091
:100ACC0001F0A1000CF0A70003E0A800190037000A
:100ADC006120E1001B0032000881BE000280BE00D4
:100AEC00F7FF37006150E100FCFF3A0015003700BA
:100AFC000084BE003C0007000083BE000485BE00DD
:100B0C000280BE0038000700844F7500000006000C
:100B1C000280BE006450E100050036006420E10054
:100B2C00020036000968A30001003A000880BE00EC
:100B3C0002C0A8004F0678004F05BE004F04BE004F
:100B4C0000000600F0FF2F00F1FF2700F9FF37002F
:100B5C0081002000618055000B003D000B0020003F
:100B6C0061FE2F000100E1001D0034008281710044
:100B7C00610164008904D1000884D3000000E800FE
:100B8C00FAFF3A007100200061006400030070005D
:100B9C00020060000900320061044400E0844C0053
:100BAC000988A500050032008B05E8006808E10003
:100BBC0002003A008904D1000884D300F20F20000F
:100BCC000258E10005003D00C75DDD00F907B200E9
:100BDC008980750008008800000006000BF82700CB
:100BEC001B00880000000500C70ADE00F107B200F8
:100BFC00F50FB20008003200E1CF420002003200D3
:100C0C0002E0A80024000500810F700001003200F2
:100C1C000408050044000500810F700002003A0032
:100C2C00140005008502E9000000400081C0480066
:100C3C00FCFF3B0002E0A800240005000080FA0045
:040C4C00000006009E
:1007B0000000FA00020007000A0504000000000023
:1007C000889FBE008A9FBE008C1F78003E000700F5
:1007D0004500330003866C006450E1002E003200B7
:1007E0006420E100330032006150E1002F0032004C
:1007F0006120E1003100320085855500EB07B00033
:100800000900200008042000050037000804440007
:1008100089844C000A0031000603430087834B00A3
:100820000001530081815B00F8FF33000283BE00AA
:100830001000A8000804440089844C00F6FF390029
:10084000C639DD008301730001003200130020006F
:100850008904D1000884D3000998A3000500320060
:100860000800A7000600A8008904D1000884D3006E
:100870008B05E8008904D1000884D3000001EB0057
:100880000281D2002800070001F0A1000CF0A700AF
:1008900003E0A8001D0037006420E1001F003200C3
:1008A0000881BE000280BE00F7FF37006120E10032
:1008B0001A0032006000B800F3FF3700000020008B
:1008C00001F82700F0FF37000084BE003C0007005D
:1008D0000083BE000485BE000280BE003800070011
:1008E000844F7500000006000280BE006450E100E5
:1008F000050036006420E100020036000968A3000C
:1009000001003A000880BE0002C0A8004F0678002F
:100910004F05BE004F04BE0000000600F0FF2F0090
:10092000F1FF2700F9FF37008100200061805500AA
:100930000B003D000B00200061FE2F000100E100D4
:100940001D00340082817100610164008904D100BE
:100950000884D3000000E800FAFF3A00710020008C
:1009600061006400030070000200600009003200B2
:1009700061044400E0844C000988A50005003200B1
:100980008B05E8006808E10002003A008904D10004
:100990000884D300F20F20000258E10005003D005A
:1009A000C75DDD00F907B200898075000800880086
:1009B000000006000BF827001B008800000005005F
:1009C000C70ADE00F107B200F50FB20008003200DE
:1009D000E1CF42000200320002E0A800240005003E
:1009E000810F70000100320004080500440005007A
:1009F000810F700002003A00140005008502E90032
:100A00000000400081C04800FCFF3B0002E0A8005D
:0C0A1000240005000080FA000000060031
:101F7C000A8020000B0020005A0009000B1D78007D
:041F8C00000006004B
:101F900001802000E0F328003F000900B01878001D
:041FA0000000060037
:101E28003400F8003600F800801F780020002000F9
:101E38000C000900B01F7800B04480006000E10089
:101E480003003A00CA02AA00CA22AA000100370009
:101E5800CA22AA0086A0A900A00120000C0009003F
:101E68004F1078004F0078003600F9003400F90070
:041E78000040060020
:101850003400F8003600F800801F780020002000D7
:101860000C000900B01F7800B04480006000E10067
:1018700002003A00CA62AA0001003700CA02AA00A8
:1018800084C0A900A00120000C0009004F107800BE
:101890004F0078003600F9003400F90000400600DF
:101554003400F8003600F800801F780020002000D6
:101564000C000900B01F78008460A90020C0B300FB
:1015740080407800602A200090C06800EFC06000BE
:10158400602A200090C06800602A2000014878008A
:101594000020EF005045880020282000A045880046
:1015A4008560A900A042A8008560AF000100370053
:1015B400FDFF3700A042A90010002000604588000C
:1015C400604580007000E1000B003D00A0458000F4
:1015D40090007800A08A200010884000210020009C
:1015E400408B20001088400011002000C08A200099
:1015F40010884000F2FF370050458000F2002000C0
:10160400110009000200D8007045880050C0B300E2
:1016140080407800602A200090C06800EFC060001D
:10162400602A200090C06800602A200001487800E9
:101634000020EF005045880020282000A0458800A5
:101644008560A900A042A8008560AF0001003700B2
:10165400FDFF3700A042A90010002000604588006B
:10166400604580007000E1000B003D00A045800053
:1016740090007800A08A20001088400021002000FB
:10168400408B20001088400011002000C08A2000F8
:1016940010884000F2FF370050458000F20020001F
:1016A400110009000200D8008045880070C0B30012
:1016B40080407800602A200090C06800EFC060007D
:1016C400602A200090C06800602A20000148780049
:1016D4000020EF005045880020282000A045880005
:1016E4008560A900A042A8008560AF000100370012
:1016F400FDFF3700A042A9001000200060458800CB
:10170400604580007000E1000B003D00A0458000B2
:1017140090007800A08A200010884000210020005A
:10172400408B20001088400011002000C08A200057
:1017340010884000F2FF370050458000F20020007E
:10174400110009000200D80090458800704580000F
:10175400CF80DE000081EB00EBFE0700D2E7230020
:10176400A3EF2300ACFC0700C0448800D1448800E8
:1017740080458000CF80DE000081EB00E2FE0700A0
:1017840002002000030A2400A3FC070002002C002E
:10179400F347240005FC07002045880031458800F4
:1017A40090458000CF80DE000081EB00D6FE07006C
:1017B40002002000030A240097FC070002002C000A
:1017C400F3472400F9FB0700E0448800F144880053
:1017D400A00120000C0009004F1078004F00780091
:0C17E4003600F9003400F9000040060057
:1017F0003400F8003600F800801F78002000200038
:101800000C000900B01F7800280020004758240071
:101810000E20ED00FEFF3A001020ED00FCFF3A0024
:101820000000000000000000608920001088EA002D
:101830008400A900A00120000C0009004F107800CE
:101840004F0078003600F9003400F900004006002F
:101E7C002020000020200000202000004E4F0000F9
:101E8C00524D0000414C000020200000202000009A
:081E9C002020000020000000DE
:081EA400494E00004600000059
:081EAC004E6100004E00000031
:041EB400A861000021
:101EB800506F0000746500006E630000696F0000D9
:101EC8006D650000747200006F2000002020000083
:101ED800202000002020000000200000202000001A
:101EE80020520000455300004652000049410000BE
:101EF8004E4400004F200000202000002020000059
:101F080000200000202000002020000020500000B9
:101F180045520000494700004F20000020200000E3
:101F280020200000202000000020000020200000C9
:101F38002020000020200000202000002020000099
:081F4800202000002000000031
:041F5000300000005D
:101F54002020000020200000544500004D500000C7
:101F64004552000041540000555200004120000039
:081F7400202000002000000005
:0200000401F009
:1C000000068300003F000000B38700000F3100000F3300000700000003C0000096
:00000001FF
