:100000005801040000000000000000000000000093
:1000100000000000000000000000000000000000E0
:1000200000000000000000000000000000000000D0
:1000300000000000000000000000000000000000C0
:1000400000000000000000000000000000000000B0
:1000500000000000000000000000000000000000A0
:100060000000000000000000000000000000000090
:100070000000000000000000000000000000000080
:100080000000000000000000000000003C01000033
:100090000000000000000000000000000000000060
:1000A0000000000000000000000000000000000050
:1000B0000000000000000000000000000000000040
:1000C0000000000000000000000000000000000030
:1000D0000000000000000000000000000000000020
:1000E0000000000000000000000000000000000010
:1000F0000000000000000000000000000000000000
:1001000000000000000000000000000000000000EF
:1001100000000000000000000000000000000000DF
:1001200000000000000000000000000000000000CF
:1001300000000000000000000000000000000000BF
:1001400000000000000000000000000000000000AF
:10015000000000000000000000000000000000009F
:10016000000000000000000000000000000000008F
:10017000000000000000000000000000000000007F
:10018000000000000000000000000000000000006F
:10019000000000000000000000000000000000005F
:1001A000000000000000000000000000000000004F
:1001B000000000000000000000000000000000003F
:1001C000000000000000000000000000000000002F
:1001D000000000000000000000000000000000001F
:1001E000000000000000000000000000000000000F
:1001F00000000000000000000000000000000000FF
:1002B0002F802000F0FF200020A0B70000002000C9
:1002C00034A0B700400020004420B7009001020095
:1002D000000000008A1F7800F0FF2F00A8A2B700DE
:1002E000C622EF007AC6B300D8FF07000AC3B300E6
:1002F000D0FF0700C2FF070001802000804878007F
:1003000000457800C4FF0700008020001080FB003B
:10031000CAA2B700F7FF37004F057800FFFF37008C
:10024C000A80FB001EA2B7001622EF001822EF0056
:10025C008720A9008F20A9008700A9008F00A90082
:0C026C0017E2A8001942A80000000600DC
:100234001922AE0001003700FDFF37000A80FB00E1
:080244001AA2B7000000060039
:100200001802AF0001003700FDFF3700E110800049
:08021000014078000000060027
:100218001922AE0004003700F7FF07000080FB003A
:0C0228001AA2B700FAFF37000000060021
:100320000A8020000B002000000009000B1D78004F
:0403300000000600C3
:100278003400F8003600F800801F780020002000C5
:100288000C000900B01F78008720A900A0012000F9
:100298000C0009004F1078004F0078003600F90074
:0802A8003400F90000400600DB
:0200000401F009
:1C000000068300003F000000B38700000F3100000F3300000700000003C0000096
:00000001FF
