:100000001E020400000000000000000000000000CC
:1000100000000000000000000000000000000000E0
:1000200000000000000000000000000000000000D0
:1000300000000000000000000000000000000000C0
:1000400000000000000000000000000000000000B0
:1000500000000000000000000000000000000000A0
:100060000000000000000000000000000000000090
:100070000000000000000000000000000000000080
:100080000000000000000000000000000000000070
:100090000000000000000000000000000000000060
:1000A0000000000000000000000000000000000050
:1000B0000000000000000000000000000000000040
:1000C0000000000000000000000000000000000030
:1000D0000000000000000000000000000000000020
:1000E0000000000000000000000000000000000010
:1000F0000000000000000000000000000000000000
:1001000000000000000000000000000000000000EF
:1001100000000000000000000000000000000000DF
:1001200000000000000000000000000000000000CF
:1001300000000000000000000000000000000000BF
:1001400000000000000000000000000000000000AF
:10015000000000000000000000000000000000009F
:10016000000000000000000000000000000000008F
:10017000000000000000000000000000000000007F
:10018000000000000000000000000000000000006F
:10019000000000000000000000000000000000005F
:1001A000000000000000000000000000000000004F
:1001B000000000000000000000000000000000003F
:1001C000000000000000000000000000000000002F
:1001D000000000000000000000000000000000001F
:1001E000000000000000000000000000000000000F
:1001F00000000000000000000000000000000000FF
:10043C002F802000F0FF200020A0B700000020003B
:10044C0034A0B700400020004420B7004202020054
:10045C0000000000F0FF2F00A8A2B700C622EF009A
:10046C00D222EF00D822EF00DE22EF00D5FF0700EA
:08047C00FEFF3700FFFF37000F
:1003D0008A1F78008B1F78008C1F78004B06200046
:1003E0000C0020008A1B2000B7FF07004B062000EE
:1003F0000C0020008A1B2000B3FF07004B062000E2
:100400000C0020008A1B2000AFFF07004B062000D5
:100410000C002000DA152000ABFF07004B0620007F
:100420000C002000BA202000A7FF07004F0678002C
:0C043000CF0578004F05780000000600A2
:1002C8008B1F78008C1F78000A017800CF91DE0020
:1002D80000242400F10020000082EB00C6FF070084
:1002E8004F067800CF0578000002BE00849FBE004C
:1002F8000B0078008C007800823E2000030020006C
:10030800E6FF07004F02BE000401D0008581D2003D
:10031800849FBE000082EB00B7FF07004F02BE00BB
:100328000001BE000020EF0000408800004080006F
:10033800CF80DE000200E1000388E1001B003D00E1
:1003480010002000DAA2B7006020E10060A8E100F8
:1003580007003400574D21000E20ED00FEFF3A0043
:100368000000000061025200E0825A00F6FF3700E8
:10037800DA22EF006020E10060A8E1000700340005
:10038800574D21000E20ED00FEFF3A00000000004E
:1003980061025200E0825A00F6FF37001100200087
:1003A8000080200010884000E0FF3700580020003F
:1003B800B71A21000E20ED00FEFF3A001020ED00D4
:0803C800FCFF3A0000000600F2
:100200000000FA00020007004E0104000000000098
:100210000800E20002003A0010000700000006009B
:10022000839F68000200E20002003D0060001000B1
:10023000E08018000600E20002003D0060011100AD
:10024000E0811900050007004F00E00002003B00BC
:1002500060001000E0801800000006006022B80076
:10026000060220000000D0008180D2000482D2006B
:100270008582D2000000A8000202520083825A0048
:1002800003003B000202420083824A000000A100FA
:100290000603E900F3FF3A00000006000080FA00C0
:0402A0000000060054
:1002A4000000FA00020AB800500088000200B800FA
:1002B40081004200032AB800810042000080FA0055
:0402C4000000060030
:100484000A8020000B002000000009000B1D7800EA
:04049400000006005E
:0200000401F009
:1C000000068300003F000000B38700000F3100000F3300000700000003C0000096
:00000001FF
