:100000006C08040000000000000000000000000078
:1000100000000000000000000000000000000000E0
:100020000000000000000000520800000000000076
:100030000000000026090000000000000000000091
:1000400000000000000000000000000000000000B0
:1000500000000000000000000000000000000000A0
:100060000000000000000000000000000000000090
:100070000000000000000000000000000000000080
:100080000000000000000000000000000000000070
:100090000000000000000000000000000000000060
:1000A0000000000000000000000000000000000050
:1000B0000000000000000000000000000000000040
:1000C0000000000000000000000000000000000030
:1000D0000000000000000000000000000000000020
:1000E0000000000000000000000000000000000010
:1000F0000000000000000000000000000000000000
:1001000000000000000000000000000000000000EF
:1001100000000000000000000000000000000000DF
:1001200000000000000000000000000000000000CF
:1001300000000000000000000000000000000000BF
:1001400000000000000000000000000000000000AF
:10015000000000000000000000000000000000009F
:10016000000000000000000000000000000000008F
:10017000000000000000000000000000000000007F
:10018000000000000000000000000000000000006F
:10019000000000000000000000000000000000005F
:1001A000000000000000000000000000000000004F
:1001B000000000000000000000000000000000003F
:1001C000000000000000000000000000000000002F
:1001D000000000000000000000000000000000001F
:1001E000000000000000000000000000000000000F
:1001F00000000000000000000000000000000000FF
:1010D8006F832000F0FF200020A0B7000000200050
:1010E80034A0B700400020004420B700BA0902002D
:1010F80000000000C4090200000000008A1F7800F8
:101108008B1F78008C1F7800F0FF2F00A8A2B70073
:10111800A842A900A8A2A900A8E2A900D902A8008B
:101128008C00A8008420EF00A022EF0000C4B300C8
:1011380080407800002A200090C0680000CEB300EC
:1011480080C06000002A200090C06800002A2000AB
:10115800014878000A21EF00007D20000EA1B700A9
:101168000000280012A1B70020C0B300804078001A
:10117800602A200090C06800EFC06000602A20004C
:1011880090C06800602A200001487800AA22EF0079
:1011980070002000A4A2B700A222EF00202A20009D
:1011A80090407800C0C3B30080C07000202A20009F
:1011B80001487800A1E2A8000021EF0000562700AE
:1011C80002A1B7000000280004A1B70040102000C9
:1011D8009040780000C3B30080C070004010200029
:1011E800014878008C60A8008460A90032FE0700DE
:1011F8001AC0B300FEFC0700CAC0B300FCFC07001D
:10120800BC8020001B0020001A0020005FFE0700A1
:101218006C8120003A4180004B41800088FE070025
:101228006C8120001B0020002A00200057FE0700C8
:10123800F3FF37004F067800CF0578004F05780098
:04124800FFFF37006D
:100AC0000000FA0002FF070001FF0700D882A9001A
:100AD000D8A2A900D862A900D842A900D822A900AA
:100AE000D802A900DC82A900DCA2A900DC02A900CE
:100AF000DC22A900DC42A900DC62A900DC42A800DB
:100B0000DC62A800CEFD0700C8FD0700CCFD070091
:100B1000C6FD0700CAFD0700C4FD0700DC62A9008E
:100B2000C7FD0700C1FD0700C5FD0700DC42A900A5
:100B3000DC02A800C2FD0700BCFD0700DC02A90022
:100B4000DC62A800BEFD0700DC62A900BCFD070056
:100B5000B6FD0700BAFD0700DC62A800B8FD07007B
:100B6000B2FD0700DC62A900B5FD0700DC02A800A9
:100B7000DC22A800DC42A800DC62A800B0FD07006F
:100B8000AAFD0700408320001000A0000080FA00AA
:040B9000000006005B
:1006D000A76A2A000E20ED00FEFF3A00000000008D
:0806E00000000000000006000C
:100240000000FA00DC82A800EDFF0700DC82A900B4
:0C025000EBFF07000080FA000000060031
:10020000570020000E20ED00FEFF3A000000000025
:0402100000000600E4
:10022C00572927000E20ED00FEFF3A0000000000C9
:04023C0000000600B8
:1005F8000000FA008A80FB0002E0AE00DC02A900DD
:1006080002E0AF00DC02A80002C0AE00DC22A900B4
:1006180002C0AF00DC22A80002A0AE00DC42A900A4
:1006280002A0AF00DC42A8000280AE00DC62A90094
:100638000280AF00DC62A800408320001000A60002
:10064800DCA2A8001000A700DCA2A900FAFE07009F
:100658000260AE00DC02A9000260AF00DC02A80064
:100668000240AE00DC22A9000240AF00DC22A80054
:100678000220AE00DC42A9000220AF00DC42A80044
:100688000200AE00DC62A9000200AF00DC62A80034
:10069800408320001000A600DCA2A8001000A700DC
:1006A800DCA2A900E4FE0700408320001000A60099
:1006B80002003700DBFE070001003700D3FE070009
:0806C8000080FA0000000600AA
:10021400A71020000E20ED00FEFF3A0000000000B1
:080224000000000000000600CC
:100B94000000FA008A1F78000A0037000A082000C3
:100BA400110037000A0C20000F0037004A0920000A
:100BB4000D0037004A0D20000B0037000A08200002
:100BC400090037006150E100F4FF32006250E10097
:100BD400F4FF32006350E100F4FF32006450E1009E
:100BE400F4FF3200F5FF3700618055000000450036
:100BF40000057800004578007EFE07004083200051
:100C04001000A1000420EF00020046001004E000E0
:100C140007003200020046008A1F78001045780061
:100C24006CFE07004F0578000420EC00F6FF370047
:100C3400408320001000A0004F0578000080FA00D7
:040C440000000600A6
:1005D8000000FA00408320001000A100040007007A
:1005E800408320001000A0000080FA0000000600F0
:100C48000600FA008A1F78008B1F78000000200039
:100C58004047980000002000504798000A07980075
:100C68001B0798000E0190009E019000F0FF2F00D6
:100C7800F1FF2F000010E1000198E10005003A00A3
:100C88000B8020000C057800ABFD070030C0B300D6
:100C9800FE00370016C0B300600047006300400044
:100CA8001040780000E0AE000D00370060004700FB
:100CB800630140009280FB0000082000008068006B
:100CC80000497800E1404300D0C2B300004E7800EC
:100CD80061004600000678000142780001003700F4
:100CE800064278000E0090009E0090006000E1002F
:100CF8006088E10005003A004B8120000C0578006F
:100D08008DFD07000020EF00E00037000E01900085
:100D18009E0190000000200001F827000010E1006B
:100D28000198E10005003A000B8120000C057800CD
:100D380081FD070004407800D40037008C1F78003C
:100D48008A9FBE000200200003F823000E009000D6
:100D58009E00900087FD07000000E0000060EF00A3
:100D680001003D000060EC004F05BE004F06780012
:100D78000040E2000F0032008C1F78008A9FBE00FE
:100D88000E0090009E009000020020000312240034
:100D98007DFD07004F05BE004F067800000798004C
:100DA80011079800DE4090006500470061C85000B8
:100DB800E2FF37008C1F78008A9FBE0002002000E7
:100DC800031224000E0090009E009000FBFD070017
:100DD8000000E0000060EF00010035000060EC005A
:100DE8004F05BE004F0678000040E2000F003200B9
:100DF8008C1F78008A9FBE000E0090009E00900015
:100E0800D2CC2C00C3DC23005FFD07004F05BE00D9
:100E18004F0678000007980011079800DE40900000
:100E28006500470061C84000E2FF370060014700E5
:100E38003200D000A280D200000798001107980065
:100E4800600047006300400090407800F0C7B3009E
:100E580000C1500060004700E300400010C0B3002C
:100E6800804878008281FB00600147001200BE00C4
:100E78008301E900030035000000D0008180D20022
:100E8800FBFF370000079800110798006000470033
:100E980063004000010320001080FB000080400038
:100EA800004E780061004600000678005E40900021
:100EB8006104E100040035005E4090006604E10032
:100EC80001003C0006003700E0C2B300004E780085
:100ED800610046000006780010C0B3004047980043
:100EE80065C0B300602CE1002C00320060004700B0
:100EF800E30040000020EF008048780060004700D1
:100F0800B001D0002082D2008301D0000482D20038
:100F18006001470032804100A2004A0000079800A3
:100F280011079800600147003200D000A280D2006B
:100F38000007980011079800600047006300400010
:100F4800010320001080FB0000804000004E780064
:100F580061004600000678004E4090006004E10001
:100F68000B003A005E4090000060ED00504798008A
:100F78006004E10006003A00E0C2B300004E7800C9
:100F8800610046000006780010C0B3004047980092
:100F980061C0520080427800D2FF3700F0FF2F0076
:100FA800000046009040780000C3B300000CE10048
:100FB80003003A006100560000067800F7FF37008A
:100FC800F0FF2F000000460090407800E0C2B30018
:100FD800000CE10002003A006100560000067800AB
:100FE8005E4090006004E1002500320050C6B30066
:100FF800004E780061004600000678005E409000D0
:101008006004E10007003D00D0C2B300004E780044
:101018006100460000067800DE4090006500470049
:1010280060C81000DE4190005E4090006904E10055
:101038000A0036000380FB00A2002000110009000E
:101048000200D80080007800000320000100400062
:10105800004E780061004600000678000380FB001F
:10106800A2002000110009000200D800000320009F
:1010780001004000004E780061004600000678003C
:101088000020EF00004E78000020EF00CF05780028
:0C1098004F0578000080FA000000060000
:100340000000FA000A00780000017800E101400096
:100350008B007800618045008005780011497800A5
:100360001204E0000200320003007800F6FF3700BC
:0C0370000A0078000080FA00000006007F
:10037C000000FA0014002000B5FF07000080FA000E
:04038C000000060067
:10025C000000FA00020007009C01040000000000EE
:10026C00841F7800140007004F0078001100330041
:10027C00F0FF2F00838F6C0006003B000405650027
:10028C000A00A7000800370009F0A60010002000A3
:10029C0008003700820F5400838F5C000300390084
:1002AC001000200001003E000000200009F0A70013
:1002BC000000EA00000006000084BE0006000700F3
:1002CC000083BE000485BE000280BE000200070051
:1002DC00844F750000000600C70ADE00F107B2006B
:1002EC00F50FB20008003200E1CF420002003200EC
:1002FC0002E0A80024000500810F7000010032000C
:10030C000408050044000500810F700002003A004B
:10031C00140005008502E9000000400081C048007F
:10032C00FCFF3B0002E0A800240005000080FA005E
:04033C0000000600B7
:100390000000FA0002000700DE0204000000000076
:1003A000889FBE008A9FBE008C1F78003000070027
:1003B0003700330003866C006450E10024003200F3
:1003C0006420E100270032006150E1002200320089
:1003D0006120E100210032008B854200EB07B10073
:1003E0000134B800003AB8000804420089844A0089
:1003F000013AB8000030B8008880400009014A0086
:1004000004003300000040008180480002014900E0
:100410008B05E900C909DD0083017000010032008D
:1004200013002000C814DE004814DD004709DE0078
:100430001200B200C808DE00088470002400070023
:1004400001F0A1000CF0A70003E0A800190037009C
:100450006120E1001B0032000881BE000280BE0066
:10046000F7FF37006150E100FCFF3A00150037004C
:100470000084BE003C0007000083BE000485BE006F
:100480000280BE0038000700844F7500000006009F
:100490000280BE006450E100050036006420E100E7
:1004A000020036000968A30001003A000880BE007F
:1004B00002C0A8004F0678004F05BE004F04BE00E2
:1004C00000000600F0FF2F00F1FF2700F9FF3700C2
:1004D00081002000618055000B003D000B002000D2
:1004E00061FE2F000100E1001D00340082817100D7
:1004F000610164008904D1000884D3000000E80091
:10050000FAFF3A00710020006100640003007000EF
:10051000020060000900320061044400E0844C00E5
:100520000988A500050032008B05E8006808E10095
:1005300002003A008904D1000884D300F20F2000A1
:100540000258E10005003D00C75DDD00F907B2007B
:100550008980750008008800000006000BF827005D
:100560001B00880000000500C70ADE00F107B2008A
:10057000F50FB20008003200E1CF42000200320065
:1005800002E0A80024000500810F70000100320085
:100590000408050044000500810F700002003A00C5
:1005A000140005008502E9000000400081C04800F9
:1005B000FCFF3B0002E0A800240005000080FA00D8
:0405C0000000060031
:1005C4000000FA00F4FF2F0023FF07000080FA0068
:0405D400000006001D
:101374000A8020000B002000190009000B1D7800D2
:04138400000006005F
:1013880001802000409A28000A000900B01878005F
:04139800000006004B
:10124C003400F8003600F800801F780020002000E1
:10125C000C000900B01F78008A1F78008B1F7800E3
:10126C008C1F78000421EF004C8020001B00200014
:10127C001A00200044FE07008460A9000020EF0043
:10128C005041880000282000604188008560A9003A
:10129C00A042A8008560AF0001003700FDFF3700B9
:1012AC00A042A9000020EF009041880090418000EE
:1012BC007000E1000B003D00604180009000780060
:1012CC00A08220001088400021002000C082200055
:1012DC00108840001100200020832000108840005E
:1012EC00F2FF3700504180008000EB0096FD0700B4
:1012FC0070418800814188000200200003182400FE
:10130C00F6FC0700304188004141880000002800AD
:10131C0004A1B7004F067800CF0578004F05780080
:10132C00A00120000C0009004F1078004F0078003D
:0C133C003600F9003400F9000040060003
:100954000000FA00020007005C050400000000002B
:100964000400E20006003A000005EB000200E20089
:100974000F003E000000E200270032000C003700A8
:10098400A10088000200E2000400350008003C00D9
:100994000000E20020003200050037006000100073
:1009A400E080180002003B0001F02C001A00370020
:1009B4000084BE006011B8006B0920000982CF00DA
:1009C400020039000882CF000441B000694252009D
:1009D4000E00320008003B00828171006101640056
:1009E4008904D1000884D3008B05E8000442E800A0
:1009F400F9FF3A00050037000804440089844C00DC
:100A04008B05E9000442E900FBFF3A0003000700FC
:100A14000AF0A70003E0A8000000060081002000FF
:100A2400618055000B003D000B00200061FE2F008B
:100A34000100E1001D003400828171006101640045
:100A44008904D1000884D3000000E800FAFF3A00CA
:100A54007100200061006400030070000200600067
:100A64000900320061044400E0844C000988A500B8
:100A7400050032008B05E8006808E10002003A0036
:100A84008904D1000884D300F20F20000258E10049
:100A940005003D00C75DDD00F907B20089807500DF
:100AA40008008800000006000BF827001B008800DF
:0C0AB400000005000080FA0000000600B1
:1006E8000000FA0002000700A60404000000000051
:1006F800889FBE008A9FBE008C1F78003E000700BE
:100708004500330003866C006450E1002E0032007F
:100718006420E100330032006150E1002F00320014
:100728006120E1003100320085855500EB07B000FB
:1007380009002000080420000500370008044400D0
:1007480089844C000A0031000603430087834B006C
:100758000001530081815B00F8FF33000283BE0073
:100768001000A8000804440089844C00F6FF3900F2
:10077800C639DD0083017300010032001300200038
:100788008904D1000884D3000998A3000500320029
:100798000800A7000600A8008904D1000884D30037
:1007A8008B05E8008904D1000884D3000001EB0020
:1007B8000281D2002800070001F0A1000CF0A70078
:1007C80003E0A8001D0037006420E1001F0032008C
:1007D8000881BE000280BE00F7FF37006120E100FB
:1007E8001A0032006000B800F3FF37000000200054
:1007F80001F82700F0FF37000084BE003C00070026
:100808000083BE000485BE000280BE0038000700D9
:10081800844F7500000006000280BE006450E100AD
:10082800050036006420E100020036000968A300D4
:1008380001003A000880BE0002C0A8004F067800F8
:100848004F05BE004F04BE0000000600F0FF2F0059
:10085800F1FF2700F9FF3700810020006180550073
:100868000B003D000B00200061FE2F000100E1009D
:100878001D00340082817100610164008904D10087
:100888000884D3000000E800FAFF3A007100200055
:10089800610064000300700002006000090032007B
:1008A80061044400E0844C000988A500050032007A
:1008B8008B05E8006808E10002003A008904D100CD
:1008C8000884D300F20F20000258E10005003D0023
:1008D800C75DDD00F907B20089807500080088004F
:1008E800000006000BF827001B0088000000050028
:1008F800C70ADE00F107B200F50FB20008003200A7
:10090800E1CF42000200320002E0A8002400050006
:10091800810F700001003200040805004400050042
:10092800810F700002003A00140005008502E900FA
:100938000000400081C04800FCFF3B0002E0A80026
:0C094800240005000080FA0000000600FA
:1010A4003400F8003600F800801F7800200020008B
:1010B4000C000900B01F7800A00120000C000900FA
:1010C4004F1078004F0078003600F9003400F90022
:0410D40000400600D2
:081348004E6100004E000000A0
:10135000456E0000747200006569000000430000E3
:081360006F6E00007600000032
:08136800494E000046000000A0
:041370003000000049
:0200000401F009
:1C000000068300003F000000B38700000F3100000F3300000700000003C0000096
:00000001FF
