:10000000DC0204000000000000000000000000000E
:1000100000000000000000000000000000000000E0
:1000200000000000000000009C0200000000000032
:10003000000000007A020000000000000000000044
:1000400000000000000000000000000000000000B0
:1000500000000000000000000000000000000000A0
:100060000000000000000000000000000000000090
:100070000000000000000000000000000000000080
:100080000000000018040000000000000000000054
:100090000000000000000000000000000000000060
:1000A0000000000000000000000000000000000050
:1000B0000000000000000000000000000000000040
:1000C0000000000000000000000000000000000030
:1000D0000000000000000000000000000000000020
:1000E0000000000000000000000000000000000010
:1000F0000000000000000000000000000000000000
:1001000000000000000000000000000000000000EF
:1001100000000000000000000000000000000000DF
:1001200000000000000000000000000000000000CF
:1001300000000000000000000000000000000000BF
:1001400000000000000000000000000000000000AF
:10015000000000000000000000000000000000009F
:10016000000000000000000000000000000000008F
:10017000000000000000000000000000000000007F
:10018000000000000000000000000000000000006F
:10019000000000000000000000000000000000005F
:1001A000000000000000000000000000000000004F
:1001B000000000000000000000000000000000003F
:1001C000000000000000000000000000000000002F
:1001D000000000000000000000000000000000001F
:1001E000000000000000000000000000000000000F
:1001F00000000000000000000000000000000000FF
:1005B800CF842000F0FF200020A0B700000020001A
:1005C80034A0B700400020004420B7009204020085
:1005D800000000009C040200000000008A1F780050
:1005E8008B1F78008C1F7800F0FF2F00A8A2B7009F
:1005F8008C00A8008EE0A8008C60A80000032800EA
:1006080004A1B70020A1270002A1B7008420EF00B1
:100618004BFF07001AC0B3007EFF0700CAC0B30033
:100628007CFF0700B04080006000E10030003A0025
:100638001A003700AC8120001B0020002A0020008F
:1006480012FF0700250037000C8020001B00200047
:100658002A0020000DFF0700200037006C832000CF
:100668001B0020002A00200008FF07001B0037009D
:100678003C8220001B0020002A00200003FF070006
:10068800160037000C8420001B0020002A002000E0
:10069800FEFE07001100370010003700C040800040
:1006A8006000E100E3FF3200C04080006100E1002B
:1006B800E5FF3200C04080006200E100E7FF320041
:1006C800C04080006300E100E9FF3200C0408000C4
:1006D8006400E100EBFF3200EFFF37008C80200060
:1006E8001B0020001A002000E8FE07004900370020
:1006F80038003700C0408000C100DD00C082200003
:100708000100400090007800E08320001008E1001C
:1007180002003A000020EF00F04188003D00370059
:10072800C0408000C100DD00C08220000100400000
:1007380090007800E08320001008E10002003A00F1
:100748000020EF00F041880032003700C0408000F0
:10075800C100DD00C0822000010040009000780048
:10076800E08320001008E10002003A000020EF00BA
:10077800F041880027003700C0408000C100DD003C
:10078800C08220000100400090007800E083200033
:100798001008E10002003A000020EF00F041880054
:1007A8001C003700C0408000C100DD00C08220006E
:1007B8000100400090007800E08320001008E1006C
:1007C80002003A000020EF00F041880011003700D5
:1007D80010003700C04080006000E100C5FF320013
:1007E800C04080006100E100CDFF3200C0408000C1
:1007F8006200E100D5FF3200C04080006300E100E4
:10080800DDFF3200C04080006400E100E5FF3200F7
:10081800EFFF370083FF37004F067800CF057800D9
:080828004F057800FFFF3700C7
:100348000000FA00CBFF0700CAFF0700D882A90007
:10035800D8A2A900D862A900D842A900D822A90029
:10036800D802A900DC82A900DCA2A900DC02A9004D
:10037800DC22A900DC42A900DC62A900DC42A8005A
:10038800DC62A800ACFF0700A0FF0700AAFF070077
:100398009EFF0700A8FF07009CFF0700DC62A9007A
:1003A800A5FF070099FF0700A3FF0700DC42A9008B
:1003B800DC02A800A0FF070094FF0700DC02A900E8
:1003C800DC62A8009CFF0700DC62A9009AFF070016
:1003D8008EFF070098FF0700DC62A80096FF070061
:1003E8008AFF0700DC62A90093FF0700DC02A8006F
:1003F800DC22A800DC42A800DC62A8008EFF07000F
:1004080082FF0700A08420001000A0000080FA00EE
:0404180000000600DA
:10027C00A76A2A000E20ED00FEFF3A0000000000E5
:08028C00000000000000060064
:100240000000FA00DC82A800EDFF0700DC82A900B4
:0C025000EBFF07000080FA000000060031
:10020000570020000E20ED00FEFF3A000000000025
:0402100000000600E4
:10021400572927000E20ED00FEFF3A0000000000E1
:0402240000000600D0
:10041C000000FA008A80FB0002E0AE00DC02A900BA
:10042C0002E0AF00DC02A80002C0AE00DC22A90092
:10043C0002C0AF00DC22A80002A0AE00DC42A90082
:10044C0002A0AF00DC42A8000280AE00DC62A90072
:10045C000280AF00DC62A800A08420001000A6007F
:10046C00DCA2A8001000A700DCA2A90071FF070005
:10047C000260AE00DC02A9000260AF00DC02A80042
:10048C000240AE00DC22A9000240AF00DC22A80032
:10049C000220AE00DC42A9000220AF00DC42A80022
:1004AC000200AE00DC62A9000200AF00DC62A80012
:1004BC00A08420001000A600DCA2A8001000A70059
:1004CC00DCA2A9005BFF0700A08420001000A6009E
:1004DC00020037004CFF0700010037004FFF0700F8
:0804EC000080FA000000060088
:10022800A71020000E20ED00FEFF3A00000000009D
:080238000000000000000600B8
:100294000000FA008A1F78000A0037000A082000CC
:1002A400110037000A0C20000F0037004A09200013
:1002B4000D0037004A0D20000B0037000A0820000B
:1002C400090037006150E100F4FF32006250E100A0
:1002D400F4FF32006350E100F4FF32006450E100A7
:1002E400F4FF3200F5FF370061805500000045003F
:1002F400000578000045780047000700A08420002E
:100304001000A1000420EF00020046001004E000E9
:1003140007003200020046008A1F7800104578006A
:10032400CDFF07004F0578000420EC00F6FF3700EE
:10033400A08420001000A0004F0578000080FA007F
:0403440000000600AF
:10025C000000FA00A08420001000A1006C00070030
:10026C00A08420001000A0000080FA00000006000E
:100924000A8020000B002000240009000B1D780021
:0409340000000600B9
:10093800018020008044280024000900B0187800B5
:0409480000000600A5
:100830003400F8003600F800801F78002000200007
:100840000C000900B01F780010002000B0408800A4
:100850000020EF00F041880058002000B71A210066
:100860000E20ED00FEFF3A001020ED00FCFF3A00E4
:100870008600A900A00120000C0009004F1078009C
:100880004F0078003600F9003400F90000400600FF
:1004F4003400F8003600F800801F78002000200047
:100504000C000900B01F780011002000E0832000D7
:10051400108840008400A900A00120000C000900FC
:100524004F1078004F0078003600F9003400F900CD
:04053400004006007D
:100538003400F8003600F800801F78002000200002
:100548000C000900B01F78001100200080812000F5
:10055800108840000020EF00F04188000020EF00E4
:10056800B0408800C04080006400E1000200340010
:100578000020EF00C040880058002000B71A210072
:100588000E20ED00FEFF3A001020ED00FCFF3A00BF
:100598008400A900A00120000C0009004F10780079
:1005A8004F0078003600F9003400F90000400600DA
:100890003120000073200000202000002000000014
:1008A000536100006D7000006C6900006E6700000D
:0C08B00020540000696D0000650000008D
:0408BC000000000038
:0408C0000000000034
:1008C400302E00003520000073200000202000009E
:1008D40000310000206D0000696E0000202000003F
:0408E40020000000F0
:1008E8000100000002000000140000007800000071
:0408F800201C0000C0
:1008FC003130000020730000202000002000000098
:04090C0000000000E7
:1009100031200000686F000072610000202000009C
:0409200020000000B3
:0200000401F009
:1C000000068300003F000000B38700000F3100000F3300000700000003C0000096
:00000001FF
