:1000000020010400000000000000000000000000CB
:1000100000000000000000000000000000000000E0
:1000200000000000000000000000000000000000D0
:1000300000000000000100000000000000000000BF
:1000400000000000000000000000000000000000B0
:1000500000000000000000000000000000000000A0
:100060000000000000000000000000000000000090
:100070000000000000000000000000000000000080
:100080000000000000000000000000000000000070
:100090000000000000000000000000000000000060
:1000A0000000000000000000000000000000000050
:1000B0000000000000000000000000000000000040
:1000C0000000000000000000000000000000000030
:1000D0000000000000000000000000000000000020
:1000E0000000000000000000000000000000000010
:1000F0000000000000000000000000000000000000
:1001000000000000000000000000000000000000EF
:1001100000000000000000000000000000000000DF
:1001200000000000000000000000000000000000CF
:1001300000000000000000000000000000000000BF
:1001400000000000000000000000000000000000AF
:10015000000000000000000000000000000000009F
:10016000000000000000000000000000000000008F
:10017000000000000000000000000000000000007F
:10018000000000000000000000000000000000006F
:10019000000000000000000000000000000000005F
:1001A000000000000000000000000000000000004F
:1001B000000000000000000000000000000000003F
:1001C000000000000000000000000000000000002F
:1001D000000000000000000000000000000000001F
:1001E000000000000000000000000000000000000F
:1001F00000000000000000000000000000000000FF
:100240002F802000F0FF200020A0B7000000200039
:1002500034A0B700400020004420B7005A0102003B
:1002600000000000F0FF2F00A8A2B700C622EF0098
:100270000021EF008420EF00800020008CA0B70058
:1002800020A1270002A1B7000003280004A1B700A5
:10029000004080006000E10002003A00CA22EF0046
:1002A0000200370010002000CAA2B700F8FF370094
:0402B000FFFF370015
:1002B4000A8020000B002000000009000B1D7800BC
:0402C4000000060030
:100200003400F8003600F800801F7800200020003D
:100210000C000900B01F7800008020001088EA0060
:100220008420EF00A00120000C0009004F1078008E
:100230004F0078003600F9003400F9000040060055
:0200000401F009
:1C000000068300003F000000B38700000F3100000F3300000700000003C0000096
:00000001FF
