:10000000641F040000000000000000000000000069
:1000100000000000000000000000000000000000E0
:100020000000000000000000101F000000000000A1
:1000300000000000000000000000000000000000C0
:1000400000000000000000000000000000000000B0
:1000500000000000000000000000000000000000A0
:100060000000000000000000000000000000000090
:100070000000000000000000000000000000000080
:10008000000000000000000000000000481F000009
:100090000000000000000000000000000000000060
:1000A0000000000000000000000000000000000050
:1000B0000000000000000000000000000000000040
:1000C0000000000000000000000000000000000030
:1000D0000000000000000000000000000000000020
:1000E0000000000000000000000000000000000010
:1000F0000000000000000000000000000000000000
:1001000000000000000000000000000000000000EF
:1001100000000000000000000000000000000000DF
:1001200000000000000000000000000000000000CF
:1001300000000000000000000000000000000000BF
:1001400000000000000000000000000000000000AF
:10015000000000000000000000000000000000009F
:10016000000000000000000000000000000000008F
:10017000000000000000000000000000000000007F
:10018000000000000000000000000000000000006F
:10019000000000000000000000000000000000005F
:1001A000000000000000000000000000000000004F
:1001B000000000000000000000000000000000003F
:1001C000000000000000000000000000000000002F
:1001D000000000000000000000000000000000001F
:1001E000000000000000000000000000000000000F
:1001F00000000000000000000000000000000000FF
:103EC8006F8E2000F0FF200020A0B7000000200027
:103ED80034A0B700400020004420B70000220200B0
:103EE800000000000A220200000000008A1F78007B
:103EF8007AFE07003AC3B300BCFF07009800200011
:103F0800773522000E20ED00FEFF3A001020ED006C
:103F1800FCFF3A00B8FE0700DE08F800E008F800E9
:103F2800001F2A00801F7800808A2000801F7800E8
:103F380096FF07008F00B100D408F800D608F800F3
:103F4800501F2A00801F7800208C2000801F7800D6
:103F58008EFF07008F00B100E208F800E408F800BF
:103F6800A01F2A00801F7800208B2000801F780067
:103F780086FF07008F00B100CA88200043FD0700B4
:103F8800AAC0B30067F407008A8A20003FFD070033
:103F9800EA8B20003DFD07009AC0B30061F40700DA
:103FA8002A8B200039FD0700AA80200037FD070072
:103FB8009AC0B3005BF407002A8C200033FD070089
:103FC800CA80200031FD0700AAC0B30055F40700DD
:103FD8000200200003222400F046800001478000F0
:103FE80074F107000000E0000060EF0001003400F9
:103FF8000060EC000040E2000300320010002000E6
:1040080010448800020037000020EF0010448800A8
:10401800EA45800029FD070018012000F76A2400FE
:104028000E20ED00FEFF3A001020ED00FCFF3A00E4
:0C403800B2FF37004F057800FFFF370093
:1038E400F0FF2F00A8A2B700A802A800A822A800F1
:1038F400A8C2A900A8E2A900A902A9008420EF0097
:103904008620EF00C622EF00CA02A900CA22A9003D
:1039140000102000D8A2B700C6C2A800C6E2A800C2
:10392400C702A800D222EF00A022EF0000C4B30017
:1039340080407800002A200090C0680000CEB300C8
:1039440080C06000002A200090C06800002A200087
:10395400014878000A21EF00C05D20000EA1B700E5
:103964000000280012A1B70020002000A6A2B70082
:10397400AA22EF0070002000A4A2B70080C0B30008
:1039840080407800402A200090C06800F0C3B30053
:1039940080C06000402A200090C06800402A2000B7
:1039A4000148780021158000F00F2E00008060008F
:1039B400A4A2B700A222EF00202A200090407800A1
:1039C400C0C3B30080C07000202A200001487800E2
:1039D400A1E2A8008C00A8008200A900000328002E
:1039E40010A1B700204E20000CA1B70060002000F9
:0C39F40084A1B7008021EF000000060055
:103DF4000A80FB001EA2B7001622EF001822EF0073
:103E04008720A9008F20A9008700A9008F00A9009E
:0C3E140017E2A8001942A80000000600F8
:103A000060C0B30080407800602A200090C0680049
:103A1000EFC06000602A200090C06800602A20008B
:103A2000014878000020EF000220EF008046880067
:103A3000914688000020EF000220EF0060468800D9
:103A40007146880020282000C04688008560A900B3
:103A5000A042A8008560AF0001003700FDFF3700DD
:103A6000A042A9001000200001002000D0468800DC
:103A7000E1468800D0468000E14680007000E10009
:103A80006088E10010003D00C04680001000780012
:103A9000800078004F89DE00C08C20001098400024
:103AA0001010490021002000808D20001088400067
:103AB0001100200002002000A08D2000109840007E
:103AC00010104900EBFF370060468000714680000F
:103AD0000081EB003AF50700804688009146880097
:103AE00002002000031824009AF407008046880092
:103AF000914688000200200003092400D8FD070039
:103B000002002C00F347240092F4070010478800BD
:103B100021478800D801200037BB27000E20ED0088
:103B2000FEFF3A001020ED00FCFF3A0070C0B30029
:103B300080407800602A200090C06800EFC06000DC
:103B4000602A200090C06800602A200001487800A8
:103B50000020EF000220EF00804688009146880098
:103B60000020EF000220EF006046880071468800C8
:103B700020282000C04688008560A900A042A80037
:103B80008560AF0001003700FDFF3700A042A900AB
:103B90001000200001002000D0468800E146880087
:103BA000D0468000E14680007000E1006088E100BE
:103BB00010003D00C04680001000780080007800B2
:103BC0004F89DE00C08C2000109840001010490082
:103BD00021002000808D200010884000110020006E
:103BE00002002000A08D2000109840001010490015
:103BF000EBFF370060468000714680000081EB00DB
:103C0000EFF40700804688009146880002002000FB
:103C1000031824004FF4070080468800914688006E
:103C200002002000030A24008DFD070002002C0082
:103C3000F347240047F4070002002000832C2400EF
:103C400087FD0700F046880001478800D801200062
:103C500037BB27000E20ED00FEFF3A001020ED00DC
:103C6000FCFF3A0080C0B30080407800602A20004A
:103C700090C06800EFC06000602A200090C068001B
:103C8000602A2000014878000020EF000220EF00A9
:103C900080468800914688000020EF000220EF0057
:103CA000604688007146880020282000C0468800B1
:103CB0008560A900A042A8008560AF000100370020
:103CC000FDFF3700A042A9001000200001002000E5
:103CD000D0468800E1468800D0468000E14680005A
:103CE0007000E1006088E10010003D00C0468000E7
:103CF00010007800800078004F89DE00C08C200022
:103D0000109840001010490021002000808D2000F4
:103D1000108840001100200002002000A08D20002B
:103D20001098400010104900EBFF370060468000FB
:103D3000714680000081EB00A1F4070080468800F6
:103D400091468800020020000318240001F40700B7
:103D50008046880091468800020020000309240064
:103D60003FFD070002002C00F3472400F9F3070091
:103D7000A0468800B1468800D801200037BB270044
:103D80000E20ED00FEFF3A001020ED00FCFF3A008F
:043D90000000060029
:100FC0000000FA0002000700920804000000000080
:100FD0000400E20006003A000005EB000200E20017
:100FE0000F003E000000E200270032000C00370036
:100FF000A10088000200E2000400350008003C0067
:101000000000E20020003200050037006000100000
:10101000E080180002003B0001F02C001A003700AD
:101020000084BE006011B8006B0920000982CF0067
:10103000020039000882CF000441B000694252002A
:101040000E00320008003B008281710061016400E3
:101050008904D1000884D3008B05E8000442E8002D
:10106000F9FF3A00050037000804440089844C0069
:101070008B05E9000442E900FBFF3A00030007008A
:101080000AF0A70003E0A80000000600810020008D
:10109000618055000B003D000B00200061FE2F0019
:1010A0000100E1001D0034008281710061016400D3
:1010B0008904D1000884D3000000E800FAFF3A0058
:1010C00071002000610064000300700002006000F5
:1010D0000900320061044400E0844C000988A50046
:1010E000050032008B05E8006808E10002003A00C4
:1010F0008904D1000884D300F20F20000258E100D7
:1011000005003D00C75DDD00F907B200898075006C
:1011100008008800000006000BF827001B0088006C
:0C112000000005000080FA00000006003E
:100D54000000FA0002000700DC07040000000000A5
:100D6400889FBE008A9FBE008C1F78003E0007004B
:100D74004500330003866C006450E1002E0032000D
:100D84006420E100330032006150E1002F003200A2
:100D94006120E1003100320085855500EB07B00089
:100DA400090020000804200005003700080444005E
:100DB40089844C000A0031000603430087834B00FA
:100DC4000001530081815B00F8FF33000283BE0001
:100DD4001000A8000804440089844C00F6FF390080
:100DE400C639DD00830173000100320013002000C6
:100DF4008904D1000884D3000998A30005003200B7
:100E04000800A7000600A8008904D1000884D300C4
:100E14008B05E8008904D1000884D3000001EB00AD
:100E24000281D2002800070001F0A1000CF0A70005
:100E340003E0A8001D0037006420E1001F00320019
:100E44000881BE000280BE00F7FF37006120E10088
:100E54001A0032006000B800F3FF370000002000E1
:100E640001F82700F0FF37000084BE003C000700B3
:100E74000083BE000485BE000280BE003800070067
:100E8400844F7500000006000280BE006450E1003B
:100E9400050036006420E100020036000968A30062
:100EA40001003A000880BE0002C0A8004F06780086
:100EB4004F05BE004F04BE0000000600F0FF2F00E7
:100EC400F1FF2700F9FF3700810020006180550001
:100ED4000B003D000B00200061FE2F000100E1002B
:100EE4001D00340082817100610164008904D10015
:100EF4000884D3000000E800FAFF3A0071002000E3
:100F04006100640003007000020060000900320008
:100F140061044400E0844C000988A5000500320007
:100F24008B05E8006808E10002003A008904D1005A
:100F34000884D300F20F20000258E10005003D00B0
:100F4400C75DDD00F907B2008980750008008800DC
:100F5400000006000BF827001B00880000000500B5
:100F6400C70ADE00F107B200F50FB2000800320034
:100F7400E1CF42000200320002E0A8002400050094
:100F8400810F7000010032000408050044000500D0
:100F9400810F700002003A00140005008502E90088
:100FA4000000400081C04800FCFF3B0002E0A800B4
:0C0FB400240005000080FA000000060088
:103260000000FA0002000700461A040000000000F7
:10327000889FBE008A9FBE008C1F78003000070028
:103280003700330003866C006450E10024003200F4
:103290006420E100270032006150E100220032008A
:1032A0006120E100210032008B854200EB07B10074
:1032B0000134B800003AB8000804420089844A008A
:1032C000013AB8000030B8008880400009014A0087
:1032D00004003300000040008180480002014900E2
:1032E0008B05E900C909DD0083017000010032008F
:1032F00013002000C814DE004814DD004709DE007A
:103300001200B200C808DE00088470002400070024
:1033100001F0A1000CF0A70003E0A800190037009D
:103320006120E1001B0032000881BE000280BE0067
:10333000F7FF37006150E100FCFF3A00150037004D
:103340000084BE003C0007000083BE000485BE0070
:103350000280BE0038000700844F750000000600A0
:103360000280BE006450E100050036006420E100E8
:10337000020036000968A30001003A000880BE0080
:1033800002C0A8004F0678004F05BE004F04BE00E3
:1033900000000600F0FF2F00F1FF2700F9FF3700C3
:1033A00081002000618055000B003D000B002000D3
:1033B00061FE2F000100E1001D00340082817100D8
:1033C000610164008904D1000884D3000000E80092
:1033D000FAFF3A00710020006100640003007000F1
:1033E000020060000900320061044400E0844C00E7
:1033F0000988A500050032008B05E8006808E10097
:1034000002003A008904D1000884D300F20F2000A2
:103410000258E10005003D00C75DDD00F907B2007C
:103420008980750008008800000006000BF827005E
:103430001B00880000000500C70ADE00F107B2008B
:10344000F50FB20008003200E1CF42000200320066
:1034500002E0A80024000500810F70000100320086
:103460000408050044000500810F700002003A00C6
:10347000140005008502E9000000400081C04800FA
:10348000FCFF3B0002E0A800240005000080FA00D9
:043490000000060032
:103D94000200FA008A1F78008B1F78008C1F7800BD
:103DA4004EB99700E00047006A0057008008780089
:103DB400821F780001067800BEBD970002057800D6
:103DC400DFF407004F017800800178008000410093
:103DD4000020EF0080487800030078004F06780048
:103DE400CF0578004F0578000080FA000000060037
:101144002400FA0000002000500F98008B00780063
:10115400618045008005780011407800204F980098
:101164000040E2003A083200AE48900050C2B3009A
:10117400000CE100080032002E489000004D780079
:101184006100450000057800DE0890007A00470001
:1011940061884000EDFF37000020EF0060079800F1
:1011A4000020EF00700798001F003700FE00900039
:1011B4006E004700688870006180450080057800F3
:1011C4002E003700FE0090006E004700618870001A
:1011D400618045008005780028003700FE009000FB
:1011E4006E004700628870006180450080057800C9
:1011F400220037007E019000018020006E0047002D
:101204000108710061804500800578001B003700EB
:10121400FE0090006E004700648870006180450005
:1012240080057800150037009B407800D0C2B300D9
:10123400000CE100DDFF32009B40780000C2B300E7
:10124400000CE100DFFF32009B407800B0C2B30025
:10125400000CE100E1FF32009B40780030C2B30093
:10126400000CE100E3FF32009B40780000C3B300B0
:10127400000CE100E6FF320001003700CAFF37002E
:101284006E0047001010A60004003700E2FF2F0094
:10129400EE0047006E004700110861006E00470031
:1012A4001030A60004003700B2FF2F00EE00470004
:1012B4006E004700110861001B4078000080FB00AD
:1012C4008A1F78000045780094FE07004F057800D7
:1012D4000000E200160032000020EF0060079800D2
:1012E400EE009000A00020000089B9001B407800A7
:1012F4000080FB0000014100010320006C00470056
:101304000108510061804500800578001B40780089
:101314000080FB008A1F7800004578007FFE0700EC
:101324004F0578000000E200EDFF3A000D003700A1
:101334009B407800A0C2B300000CE10009003A0011
:101344008C0078001C00780000A0ED00000E7800EE
:101354001100780010007800600798006180450053
:10136400800578009B407800E0C2B300000CE100E7
:1013740027003A0061804500800578009B40780092
:10138400A0C2B300000CE1000A003A008C0078000F
:101394001C00780000A0ED00000E78001100780019
:1013A40010007800400798006180450080057800AF
:1013B400160037000020EF00400798001B4078001B
:1013C4000080FB008A1F78000045780053FE070068
:1013D4004F0578000000E2000C003200CE009000BF
:1013E400A00020000089B9001B4078000080FB00A9
:1013F400000141000103200068004700010851007A
:101404006180450080057800ECFF37000600370056
:101414000020EF00400798007E01900001002100A9
:101424006E004700010871008B0078006180450060
:101434008005780011407800204F9800970037000D
:101444005E08900083073700FE0090006E0047009E
:1014540070887000F4FF37007E0190000140200086
:101464006E00470001087100CC0037000202200022
:10147400EE0047006E004700110871007E019000E5
:10148400011020006E00470001087100C3003700FE
:101494007E019000012020006E00470001087100C9
:1014A400BE00370002042000EE0047006E00470033
:1014B40011087100B9003700B8003700020220009B
:1014C400EE0047006E00470011087100020820007A
:1014D400EE0047006E00470011087100AF003700AE
:1014E4008C0078001C00780000A0ED00000E78004D
:1014F4001100780010007800300F98006000E100BF
:1015040002003A00108A2000300F98000020EF00FB
:10151400400F9800BE0890007800470010804000FB
:101524001004E000040032004E0890000020EC009B
:10153400400F9800F7FF3700680047001000E000F4
:1015440006003200CE009000780047001008E10049
:10155400020031004E009000400F9800EE00900011
:10156400780047001008E100050036006E01900085
:10157400F80047006C0047001108510002003700D2
:101584000020EF00600798006E0047001030A700AD
:101594000E0037006E019000EE0090006C004700D2
:1015A400618850000400E2000800320000C2B30069
:1015B400004D78006100450000057800DE089000C9
:1015C4007A00470061884000F2FF3700CE0890009F
:1015D4004E0890000020ED00400F98000200E20049
:1015E4000B0032003E089000104D78006100450069
:1015F400000578003E0890000020EC00300F9800B1
:10160400DE0890007A00470061884000EFFF370051
:101614006E0047001030A6000E0037006E019000E7
:10162400EE0090006C004700618850000400E20066
:101634000800320000C2B300004D7800610045008C
:1016440000057800DE0890007A00470061884000B9
:10165400F2FF3700BDFE37008C0078001C007800D4
:1016640000A0ED00000E7800110078001000780052
:10167400204F98006A004700300F980010002000A7
:10168400400F9800ACFF3700020C2000EE0047002A
:101694006E00470011087100400037002E4890008A
:1016A4006004E10066FF3200AE489000C0C6B3009B
:1016B400000CE10064FF3200AE489000C0C4B300E7
:1016C400000CE10060FF3200AE48900060C6B30039
:1016D400000CE10060FF3200AE48900050C4B3003B
:1016E400000CE10061FF3200AE48900050C6B30028
:1016F400000CE10061FF3200AE48900070C6B300F8
:10170400000CE10062FF3200AE489000F0C6B30066
:10171400000CE10063FF3200AE48900040C6B30005
:10172400000CE10064FF3200AE48900090C6B300A4
:10173400000CE10060FF3200AE48900000C7B30027
:10174400000CE1005DFF3200AE48900080C5B3009C
:10175400000CE10059FF3200AE48900080C7B3008E
:10176400000CE10059FF3200AE48900030C7B300CE
:10177400000CE1005AFF3200AE48900030C6B300BE
:10178400000CE100B4FF3200AE48900050C7B30033
:10179400000CE100BCFF3200B6FF3700FE009000F1
:1017A4000070200000806000960432006E00470044
:1017B40010C0A60002003700600020004007980017
:1017C4008C0078001C00780064005000000E780043
:1017D400110178001200BE00000F9800110F98004C
:1017E4008C1F78008A9FBE000420EF000620EF00C3
:1017F400D4FB07000000E0000060EF0001003D00A2
:101804000060EC004F05BE004F0678000040E20087
:101814000A0032008E0990001E0A90000100200088
:1018240002002800700047000198690002106A0055
:10183400FE0090006E004700638870000020EF00F7
:10184400200F98008C1F78008A9FBE000E0890001D
:101854009E0890000420EF000620EF00B9FB07006B
:101864000000E0000060EF00010032000060EC00C6
:101874004F05BE004F0678000040E20049003200E8
:10188400F401470070004700B000780020017800A0
:10189400C710DE000001EB00F00F20008080600024
:1018A400E00720000080500080097800110020002B
:1018B4007400470010881000AE089000300020002B
:1018C4000088B900200F9800A20020001100090030
:1018D4000200D800200F98006000E10003003D00E2
:1018E4001100200074004700108810002E0890009A
:1018F400600010008C1F78008A9FBE0000457800AD
:1019040061FC07000E0990009E0990005306070031
:10191400300F9800410F98000200200003F82300C4
:101924003E089000CE08900086FB07000000E0000F
:101934000060EF0001003D000060EC004F05BE00B8
:101944004F0678000040E20004003200110020003D
:101954007400470010881000120037008C1F7800B4
:101964008A9FBE0002002000031224003E0890005B
:10197400CE08900010FB07000000E0000060EF00BC
:10198400010035000060EC004F05BE004F067800F2
:101994000040E20003003200110020007400470000
:1019A400108840002E0890006000E10003003C0015
:1019B40010C0B300204F9800020037004E50900032
:1019C400204F98006E0047001080A7000E003700DB
:1019D4006E0047001090A6000A003700C1FF2F00D8
:1019E400740047001008E10005003C00AE089000B8
:1019F400680047001008E10001003D0001003700C5
:101A04000100370002023700680047001000E000C0
:101A1400060032006E0047001090A6000300370055
:101A2400CE00900068004700618850004E0090008E
:101A34006800E1000300360080C0B300204F980026
:101A4400020037000E489000204F98008C1F780049
:101A54008A9FBE000E0890009E0890000420EF00AC
:101A64000620EF0037FB07000000E0000060EF00F5
:101A7400010032000060EC004F05BE004F06780004
:101A84000040E200720032008C1F78008A9FBE0082
:101A94004E559000FCFB07000001BE000E089000AC
:101AA4009E089000AAFC0700000F9800110F9800F0
:101AB4006A0047001080FB006000100000457800B9
:101AC400F1FB07000001BE000E0890009E08900084
:101AD4009FFC0700000F9800110F98001EFB0700E1
:101AE40036FD0700600F9800710F98000E089000F3
:101AF4009E0890006E099000FE099000B1FB07005B
:101B04000200200003F02300ABFA07000000E0000D
:101B14000060EF00010035000060EC004F05BE00DE
:101B24004F0678000040E2000B0032000E099000DE
:101B34009E0990000000200001F023008C1F780013
:101B44008A9FBE00E6F907004F05BE004F067800E5
:101B5400000F9800110F98008C1F78008A9FBE0018
:101B64000E0890009E089000FBFA07004F05BE0087
:101B74004F0678006A0147001281FB000420EC0044
:101B8400C211DD0062182A00030241001401BE00E4
:101B94000200E1000388E1000F0039008C1F780087
:101BA4008A9FBE000E0890009E089000D2CC2C00A4
:101BB400C3DC2300A90507004F05BE004F067800CB
:101BC400000F9800110F98001100200074004700C6
:101BD400108840001E0037008C1F78008A9FBE00CA
:101BE4000E0890009E089000DBFA07004F05BE0027
:101BF4004F0678006A0147001281FB00C211DD0024
:101C040062182A00030241001401BE000200E10030
:101C14000388E1000E0031008C1F78008A9FBE000B
:101C24000E0890009E089000020020000312240079
:101C34008A0507004F05BE004F067800000F980084
:101C4400110F980011002000740047001088100044
:101C54006E0047001090A600490037006E00470050
:101C640010B0A700460037004E0090006A00E10063
:101C740002003400A0002000400798008C1F780068
:101C84008A9FBE000E0890009E089000B2FA0700DA
:101C94004F05BE004F067800300F9800410F9800A2
:101CA400F600470031007800210070001D0032006A
:101CB4008C1F78008A9FBE00A20020000300200031
:101CC4003E089000CE0890000002EB0042FB0700A3
:101CD4004F05BE004F0678006000E1006088E10017
:101CE40010003A00CE009000680047006188500060
:101CF4008C1F78008A9FBE00A200200003002000F1
:101D04003E089000CE0890000002EB00C8FA0700DD
:101D14004F05BE004F067800300F9800410F980021
:101D2400DFFF37006A0047009080FB00680047002F
:101D34001008E100120034006A0047009080FB00A4
:101D440068004700108050008C1F78008A9FBE00F6
:101D5400004578004CFB07000001BE000E0890000F
:101D64009E089000FAFB07004F05BE004F0678005E
:101D7400000F9800110F98000E489000204F980013
:101D84004E00900065014000EC0047006C004700E5
:101D940011081100680047001000E00004003A0038
:101DA4006E00470010B0A7000100370003003700A1
:101DB400EE0090006C004700618850007E009000A7
:101DC400630060000000E20003003200EE009000B7
:101DD4006C004700618850006E0047001020A60088
:101DE4002C0037006E0047001010A60010003700CA
:101DF4006E0047001000A60003003700D0C2B300F5
:101E04000047980002003700B0C2B30000479800B2
:101E14000E409000004D78006100450000057800F8
:101E2400DE0890007A004700618840000A0037000D
:101E34006E0047001000A6000700370000C2B30080
:101E4400004D78006100450000057800DE08900030
:101E54007A004700618840006E0090006000E10055
:101E64000B00340000C3B300004D7800610045004E
:101E740000057800DE0890007A0047006188400081
:101E8400EE0090006C00470061885000F2FF3700BC
:101E94002E0037006E0047001030A7000E003700F8
:101EA4006E0090006000E1000B00340000C2B3003B
:101EB400004D78006100450000057800DE089000C0
:101EC4007A00470061884000EE0090006C004700F3
:101ED40061885000F2FF37006E0047001010A60022
:101EE400100037006E0047001000A6000300370002
:101EF400D0C2B3001047980002003700B0C2B3004C
:101F0400104798001E409000004D78006100450085
:101F140000057800DE0890007A00470061884000E0
:101F24000A0037006E0047001000A60007003700C3
:101F340000C2B300004D7800610045000005780040
:101F4400DE0890007A004700618840008C1F78000A
:101F54008A9FBE000E0890009E089000FEF90700BC
:101F6400300F9800410F98006A0047001080FB0072
:101F7400C200DD0060182A00810040001101BE008B
:101F84003E089000CE0890000002EB0028FA0700FB
:101F94004F05BE004F067800020320000300200016
:101FA40002004000004D7800610045000005780003
:101FB400DE0890007A00470061884000680047000E
:101FC4001000E00004003A006E00470010B0A700C3
:101FD400010037003C003700E0C2B300004D780038
:101FE4006100450000057800DE0890007A00470093
:101FF400618840006A0047001081FB00E800470048
:1020040068004700110811006A0047001004E0004E
:102014001F00320011C0B3006A00470010C810004E
:102024006A0047001080FB00C200DD0060182A002F
:10203400810040001101BE008C1F78008A9FBE0001
:102044003E089000CE0890000002EB00F8F907006B
:10205400A2002000030020000002EB005EFA07004B
:102064004F05BE004F067800020320000300200045
:1020740000004100004D7800610045000005780033
:10208400DE0890007A00470061884000DEFF3700D8
:10209400680047001000E0000B00320000C3B300EA
:1020A400004D78006100450000057800DE089000CE
:1020B4007A00470061884000CE0090006800470025
:1020C40061885000F2FF37006E0047001050A600F0
:1020D4000800370050C4B300004D7800610045008B
:1020E40000057800DE0890007A004700618840000F
:1020F4000700370050C6B300004D7800610045006A
:1021040000057800DE0890007A00470061884000EE
:102114002E0890006000E1000B003D00AE08900026
:102124007400470060881000D0C2B300004D7800EE
:102134006100450000057800DE0890007A00470041
:102144006188400007003700B0C2B300004D78003A
:102154006100450000057800DE0890007A00470021
:10216400618840002E089000A200200011000900A0
:102174000200D800800078000003200000804000A6
:10218400004D78006100450000057800DE089000ED
:102194007A004700618840002E089000A2002000C9
:1021A400110009000200D800000320000080400054
:1021B400004D78006100450000057800DE089000BD
:1021C4007A004700618840006E0047001030A60086
:1021D4000E0037006E0090006000E1000B00340038
:1021E40000C2B300004D780061004500000578008E
:1021F400DE0890007A004700618840006E0090007D
:102204000020ED0060079800F5FF3A00CFFB37008F
:102214006E0047001090A600670037002E0890005B
:102224006000E10005003D002E08900061015000AF
:10223400E800470068004700110811008C1F78006F
:102244008A9FBE000E0890009E08900042F9070085
:102254004F05BE004F067800300F9800410F9800DC
:1022640010C0B300204F98006A0047001080FB00A4
:102274006A00E100100032006A0047001080FB0091
:10228400C200DD0060182A0081014000B30078001C
:1022940023017800760047003008E1002090E10037
:1022A400010036000400370011C0B3006A00470083
:1022B40010C84000ECFF37006A0047001081FB00A3
:1022C400E800470068004700110811008C1F7800DF
:1022D4008A9FBE003E089000CE08900037FB07009E
:1022E400600F9800710F98000E0890009E089000EF
:1022F4006E099000FE099000B2F9070000179800DB
:10230400111798000E4D9000DFF907000E11900090
:102314009E119000D10307000200200003F0230067
:10232400EFF707000CF907004F05BE004F067800D1
:10233400300F9800410F9800680047001000E0003B
:102344001D0032008C1F78008A9FBE00A20020006E
:10235400030020003E089000CE0890000002EB002D
:102364009DF907004F05BE004F0678006000E100AC
:102374006088E10010003A008C1F78008A9FBE003C
:10238400A2002000030020003E089000CE08900028
:102394000002EB0026F907004F05BE004F06780047
:1023A400300F9800410F9800CE009000680047005D
:1023B40061885000E0FF37004E0090006C00E1009F
:1023C4000B003C008C1F78008A9FBE000E4D9000CD
:1023D4007EF807000E0990009E099000C0F70700E0
:1023E4004F05BE004F067800000F9800110F9800AB
:1023F4008C1F78008A9FBE000E0890009E089000F3
:102404000420EF000620EF00CEF807000000E000F3
:102414000060EF00010032000060EC004F05BE00D8
:102424004F0678000040E200390032008C1F78002B
:102434008A9FBE000E0890009E089000C6F8070010
:102444004F05BE004F0678006000E1006088E1009F
:102454002F003A002E0890006100E1002C003400A7
:102464008C1F78008A9FBE004E55900086F90700A5
:102474000001BE000E0890009E08900034FA070088
:10248400F205270093082400AEF807000000E000DE
:102494000060EF0001003D000060EC004F05BE004D
:1024A4004F0678000040E200040032009100200052
:1024B40074004700108810000300370081002000DA
:1024C40074004700108810008C1F78008A9FBE009B
:1024D4004E5590006CF907000001BE000E089000F4
:1024E4009E0890001AFA07009BF807004F05BE00EB
:1024F4004F067800300F9800410F98000020EF003D
:102504000220EF00000F9800110F98001700370009
:102514008C1F78008A9FBE000E0890009E089000D1
:102524008DF80700300F9800410F98003E08900086
:10253400CE089000A1FA0700600F9800710F980070
:102544000E0890009E0890006E099000FE0990000D
:102554001CF907004F05BE004F067800000F9800D5
:10256400110F98000020EF00200F980010C0B30056
:10257400204F98006A0047001080FB006A00E100C9
:10258400100032006A0047001080FB00C200DD002A
:1025940060182A0081014000B3007800230178000C
:1025A400760047003008E1002090E1000100360089
:1025B4000400370011C0B3006A00470010C840008F
:1025C400ECFF37006A0047009080FB00680047007A
:1025D400908040007400470010814000EC004700E8
:1025E4006C004700110811006E00470010B0A700EE
:1025F40004003700680047001000E00001003A00C2
:1026040003003700EE0090006C0047006188500022
:102614007E009000630060000000E20003003200CE
:10262400EE0090006C004700618850006E00470087
:102634001020A6002C0037006E0047001010A600E2
:10264400100037006E0047001000A600030037009A
:10265400D0C2B3002047980002003700B0C2B300D4
:10266400204798002E409000004D780061004500FE
:1026740000057800DE0890007A0047006188400079
:102684000A0037006E0047001000A600070037005C
:1026940000C2B300004D78006100450000057800D9
:1026A400DE0890007A004700618840006E009000C8
:1026B4006000E1000B00340000C3B300004D78005B
:1026C4006100450000057800DE0890007A004700AC
:1026D40061884000EE0090006C0047006188500063
:1026E400F2FF37002E0037006E0047001030A700BD
:1026F4000E0037006E0090006000E1000B00340013
:1027040000C2B300004D7800610045000005780068
:10271400DE0890007A00470061884000EE009000D7
:102724006C00470061885000F2FF37006E004700DC
:102734001010A600100037006E0047001000A6001D
:1027440003003700D0C2B3003047980002003700BE
:10275400B0C2B300304798003E409000004D78006E
:102764006100450000057800DE0890007A0047000B
:10277400618840000A0037006E0047001000A60080
:102784000700370000C2B300004D78006100450027
:1027940000057800DE0890007A0047006188400058
:1027A4002E49900011C0B3006A00470010C8100001
:1027B4000440E2001C0032006A0047001080FB0065
:1027C400C200DD0060182A00810040001101BE0033
:1027D4008C1F78008A9FBE003E089000CE089000AF
:1027E4000002EB0012F80700A20020000300200002
:1027F4000002EB0078F807004F05BE004F06780092
:10280400020320000300200000004100004D780076
:102814006100450000057800DE0890007A0047005A
:1028240061884000DEFF37002E0890006000E10060
:102834000B00340000C3B300004D78006100450074
:1028440000057800DE0890007A00470061884000A7
:10285400110020007400470010881000F2FF3700B8
:102864004E0090006800E1000300340080C0B30013
:10287400204F9800020037000E489000204F980027
:102884006A0047001081FB00E80047006800470029
:10289400110811006A0047001004E00004003A0027
:1028A4006E00470010B0A700010037000700370092
:1028B400E0C2B300004D78006100450000057800D7
:1028C400DE0890007A004700618840008C1F780081
:1028D4008A9FBE002E4D90006BF807000E099000F1
:1028E4009E0990005D020700FAF707004F05BE003D
:1028F4004F067800300F9800410F98006A00470097
:102904001004E0001F00320011C0B3006A00470049
:1029140010C810006A0047001080FB00C200DD00F0
:1029240060182A00810040001101BE008C1F78004D
:102934008A9FBE003E089000CE0890000002EB0083
:10294400BBF70700A2002000030020000002EB00F8
:1029540021F807004F05BE004F067800020320004F
:102964000300200000004100004D78006100450094
:1029740000057800DE0890007A0047006188400076
:10298400DEFF3700680047001000E0000B00320053
:1029940000C3B300004D78006100450000057800D5
:1029A400DE0890007A00470061884000CE00900065
:1029B4006800470061885000F2FF37006E0047004E
:1029C4001030A6000E0037006E0090006000E10099
:1029D4000B00340000C2B300004D780061004500D4
:1029E40000057800DE0890007A0047006188400006
:1029F4006E0090000020ED0060079800F5FF3A009B
:102A0400D2F93700010C20006E00470010806000EE
:102A14006000E10024003A006E0047001040A60068
:102A2400090037008C0078001C0078006400500016
:102A3400000E7800110178001200BE00300F9800DB
:102A4400410F9800090037008C0078001C007800C2
:102A540000A0ED00000E780011007800100078004E
:102A6400CF80DE00300F9800410F98003E089000A0
:102A7400CE0890006000E1006088E10009003D009C
:102A8400FE0090006E004700638870003E089000CE
:102A9400CE08900060001000E0801800300F98000D
:102AA400410F9800150037006E0047001040A60043
:102AB400090037008C0078001C0078006400500086
:102AC400000E7800110178001200BE00300F98004B
:102AD400410F9800090037008C0078001C00780032
:102AE40000A0ED00000E78001100780010007800BE
:102AF4008000EB00300F9800410F98004E009000CA
:102B04006000E10008003A003E089000CE08900002
:102B14006000E1006088E10003003A00CE0090000C
:102B24006800470061884000010C20006E004700E7
:102B340010806000004278004500370010C0B300E8
:102B4400204F98006A0047001080FB006A00E100F3
:102B5400100032006A0047001080FB00C200DD0054
:102B640060182A0081014000B30078002301780036
:102B7400760047003008E1002090E10001003600B3
:102B840004003700AE4890006A00470061C8400066
:102B9400ECFF37003900370010C0B300204F980015
:102BA4006A0047001080FB006800E100100032005A
:102BB4006A0047001080FB00C200DD00E01A2A0012
:102BC40081014000B30078002301780076004700BB
:102BD4003008E1002090E1000100360004003700D5
:102BE400AE4890006A00470061C84000ECFF37001F
:102BF4002200370010C0B300204F98006A0047003D
:102C04001080FB006C00E100100032006A004700F5
:102C14001080FB00C200DD0060152A008101400025
:102C2400B300780023017800760047003008E10003
:102C34002090E1000100360004003700AE48900007
:102C44006A00470061C84000ECFF37000B00370002
:102C54006024E100B9FF320000CCB3000024E1009D
:102C6400B6FF320000C8B3000024E100CAFF3200FE
:102C740000C4B3000024E100DEFF32006A00470014
:102C84009080FB00680047001008E10003003D004D
:102C94000E489000204F9800080037006A00470053
:102CA4009080FB00680047001008E1000300340036
:102CB4006A0047001080FB00400798006C00470042
:102CC4001000E000070032007E0090006300600006
:102CD4000000E20003003200EE0090006C004700A8
:102CE40061885000EE009000680047001008E10081
:102CF400050034006E019000E80047006C004700B6
:102D040011085100020037000020EF00600798000E
:102D1400FE009000408C2000808060000084200031
:102D24000008E10007003A006C0047001000E000D2
:102D340003003200EE0090006C00470061885000F0
:102D44000F003700FE009000008C2000808060009F
:102D5400008820000008E10009003A006E0090009D
:102D64006200E10004003400EE0090006C004700B3
:102D740062885000020037000020EF0060079800CE
:102D84006E0047001020A600490037006E0047007F
:102D94001010A600100037006E0047001000A600B7
:102DA40003003700D0C2B300404798000200370048
:102DB400B0C2B300404798004E409000004D7800E8
:102DC4006100450000057800DE0890007A004700A5
:102DD40061884000270037006E0047001000A600FD
:102DE4000800370000C2B300004D780061004500C0
:102DF40000057800DE0890007A00470061884000F2
:102E04001C003700FE009000008C200080806000D1
:102E1400008820000008E10016003A0000C3B30057
:102E2400004D78006100450000057800DE08900040
:102E34007A004700618840006E0047001050A600E9
:102E44000300370080C5B3005047980002003700E4
:102E540080C7B300504798005E409000004D780052
:102E64006100450000057800DE0890007A00470004
:102E7400618840006C0047001000E0000B00320045
:102E840000C3B300004D78006100450000057800E0
:102E9400DE0890007A004700618840006E009000D0
:102EA4000020ED0060079800F5FF3A005800370055
:102EB4006C0047001000E0000E0032006E00470076
:102EC4001030A7000B00370000C2B300004D78009B
:102ED4006100450000057800DE0890007A00470094
:102EE400618840006E0090000020ED0060079800AB
:102EF400F5FF3A006E0047001010A60010003700DE
:102F04006E0047001000A60003003700D0C2B300D3
:102F14006047980002003700B0C2B30060479800D1
:102F24006E409000004D7800610045000005780077
:102F3400DE0890007A004700618840000A003700EC
:102F44006E0047001000A6000700370000C2B3005F
:102F5400004D78006100450000057800DE0890000F
:102F64007A00470061884000FE009000008C200039
:102F740080806000008420000008E10008003A001E
:102F840000C3B300004D78006100450000057800DF
:102F9400DE0890007A004700618840001C0037007A
:102FA400FE009000008C20008080600000882000DB
:102FB4000008E10016003A0000C3B300004D780099
:102FC4006100450000057800DE0890007A004700A3
:102FD400618840006E0047001050A60003003700CF
:102FE40080C5B300704798000200370080C7B30063
:102FF400704798007E409000004D780061004500C5
:1030040000057800DE0890007A00470061884000DF
:103014006A0047009080FB00680047001008E10048
:1030240008003D0000C3B300004D78006100450076
:1030340000057800DE0890007A00470061884000AF
:10304400F3FF37004E019000CE0090006800470067
:10305400618850000400E2006B003200010C200083
:103064006E0047001080600000679800520037002F
:103074004E009000C200DD0060182A00810040006C
:103084001101BE008C1F78008A9FBE003E0890008C
:10309400CE0890000002EB00E5F50700A200200036
:1030A400030020000002EB004BF607004F05BE00B2
:1030B4004F06780003C3B3006A0147000349400088
:1030C400490037006E0047001050A6001400370076
:1030D4004E009000C200DD00E01A2A00810040008A
:1030E4001101BE008C1F78008A9FBE003E0890002C
:1030F400CE0890000002EB00CDF507004F05BE009E
:103104004F0678006F016000E0816000F01D2A0026
:103114008200400011407800204F980013003700CF
:103124004E009000C200DD00E01A2A008100400039
:103134001101BE008C1F78008A9FBE003E089000DB
:10314400CE0890000002EB00B9F507004F05BE0061
:103154004F0678006F016000E0816000E01C2A00E7
:103164008200400011407800204F98001E00370074
:103174004E009000C200DD0060152A00810040006E
:103184001101BE008C1F78008A9FBE003E0890008B
:10319400CE0890000002EB00A5F507004F05BE0025
:1031A4004F0678006701600001C3B3006A0047005E
:1031B400014841000C0037008E609000600CE10073
:1031C400ABFF320000CCB300000CE100A8FF3200DA
:1031D40000C8B300000CE100BAFF320000C4B30021
:1031E400000CE100E2FF32002E489000004D780010
:1031F4006100450000057800DE0890007A00470071
:10320400618840008FFF37006E0047001030A60031
:103214000E0037006E0090006000E1000B003400E7
:1032240000C2B300004D780061004500000578003D
:10323400DE0890007A004700618840006E0090002C
:103244000020ED0060079800F5FF3A00BFF7370053
:0C3254005E0890000080FA0000000600F8
:100D20000000FA0090C3B3000054E10005003E004B
:100D300000C3B3000054E1000200390010C0B3004A
:100D4000010037000020EF000080FB000080FA0067
:040D50000000060099
:100A8C000400FA006054E10052003D000A00FB0033
:100A9C00E000100001457800E0C6B300000CE10056
:100AAC002C0035000A00FB00420620001100090052
:100ABC000200D80072004000C200DD00E00E2A00E7
:100ACC00010140001200BE000007980011079800B9
:100ADC000A00FB0042062000110009000200D800A9
:100AEC0001007800A2002000110009000200D800CB
:100AFC0069004000C200DD00E00E2A0081004000C9
:100B0C001101BE000E0090009E0090008A1F78001C
:100B1C00D00907004F0578000007980011079800CE
:100B2C000A00FB00A2002000110009000200D800FE
:100B3C0001007800C200DD00E00E2A0081004000B8
:100B4C001101BE000E0090009E009000C10907002C
:100B5C006E0037006A54E100180034000A00FB00F4
:100B6C00A2002000110009000200D800690040001A
:100B7C00C200DD00E00E2A00010140001200BE00A0
:100B8C0000079800110798000A00FB00A200200043
:100B9C00110009000200D80001007800C200DD003D
:100BAC00E00E2A00810040001101BE000E009000F2
:100BBC009E009000A7090700540037000A00FB00B4
:100BCC00C200DD00E00E2A00010140001200BE0050
:100BDC004E003700E0C6B3000054E1002C00350095
:100BEC000A00FB0042062000110009000200D80098
:100BFC0072004000C200DD0020122A0001014000FA
:100C0C001200BE0000079800110798000A00FB00B4
:100C1C0042062000110009000200D80001007800F3
:100C2C00A2002000110009000200D8006900400059
:100C3C00C200DD0020122A00810040001101BE001C
:100C4C000E0090009E0090008A1F7800810907001A
:100C5C004F05780000079800110798000A00FB0068
:100C6C00A2002000110009000200D8000100780049
:100C7C00C200DD0020122A00810040001101BE00DC
:100C8C000E0090009E009000720907001F003700B4
:100C9C006A54E100180034000A00FB00A200200096
:100CAC00110009000200D80069004000C200DD00FC
:100CBC0020122A00010140001200BE00000798001B
:100CCC00110798000A00FB00A20020001100090087
:100CDC000200D80001007800C200DD0020122A00BA
:100CEC00810040001101BE000E0090009E0090009B
:100CFC0058090700050037000A00FB00C200DD00A0
:100D0C0020122A00010140001200BE000080FA00EF
:040D1C0000000600CD
:1005D0000400FA00E0C6B3000054E1003100390025
:1005E0000A80FB0042062000110009000200D8002A
:1005F00072004000C200DD00E00E2A000101400050
:100600001200BE008A1F78000200200003F02300C1
:10061000130B07004F05780000079800110798009A
:100620000A80FB0042062000110009000200D800E9
:1006300001007800A2002000110009000200D8008B
:1006400069004000C200DD00E00E2A008100400089
:100650001101BE000E0090009E0090008A1F7800DD
:10066000FF0A07004F05780000079800110798005F
:100670000A80FB00A2002000110009000200D8003F
:1006800001007800C200DD00E00E2A008100400079
:100690001101BE000E0090009E009000F00A0700BD
:1006A000270037006A54E1001D0036000A80FB0075
:1006B000A2002000110009000200D80069004000DB
:1006C000C200DD00E00E2A00010140001200BE0061
:1006D0008A1F78000200200003F02300E00A0700D0
:1006E0004F05780000079800110798000A80FB006A
:1006F000A2002000110009000200D80001007800CB
:10070000C200DD00E00E2A00810040001101BE00A1
:100710000E0090009E009000D10A070008003700EC
:100720000A80FB00C200DD00E00E2A00010140004B
:100730001200BE000200200003F02300C80A0700D8
:080740000080FA000000060031
:100748000000FA0014002000ABFE07000080FA0049
:040758000000060097
:100200000000FA00020007006E0104000000000078
:10021000841F7800140007004F007800110033009D
:10022000F0FF2F00838F6C0006003B000405650083
:100230000A00A7000800370009F0A60010002000FF
:1002400008003700820F5400838F5C0003003900E0
:100250001000200001003E000000200009F0A7006F
:100260000000EA00000006000084BE00060007004F
:100270000083BE000485BE000280BE0002000700AD
:10028000844F750000000600C70ADE00F107B200C7
:10029000F50FB20008003200E1CF42000200320048
:1002A00002E0A80024000500810F70000100320068
:1002B0000408050044000500810F700002003A00A8
:1002C000140005008502E9000000400081C04800DC
:1002D000FCFF3B0002E0A800240005000080FA00BB
:0402E0000000060014
:1005BC000000FA00F4FF2F000EFF07000080FA0085
:0405CC000000060025
:10075C000000FA000200070016040400000000006C
:10076C000081BE00190007000470A70003F0A1006F
:10077C0003F8A30013003A006509B1001000320021
:10078C00090035006928E10002003500010028004D
:10079C000000050000004000818048008502E9004F
:1007AC00FCFF3A0000000600F88F420005003500FF
:1007BC008100D1000080D3008502E800FCFF3A00E4
:1007CC00000006008000EB0000000500C70ADE00F8
:1007DC00F107B200F50FB20008003200E1CF420081
:1007EC000200320002E0A80024000500810F700016
:1007FC00010032000408050044000500810F700060
:10080C0002003A00140005008502E90000004000D7
:10081C0081C04800FCFF3B0002E0A800240005005A
:08082C000080FA000000060044
:1009C8000000FA0007E0AA0044FE07000080FA00D1
:0409D8000000060015
:1002E4000000FA0002000700DA0204000000000027
:1002F400889FBE008A9FBE008C1F780059000700AB
:10030400600033006450E1004F0032006420E100DB
:100314005200320003826C0007003B000905D00044
:100324000306D000820F54000C065D000200390061
:100334000200320039008800C3008800858255001D
:1003440004003D000003FD008103FD008502EA0076
:100354008B854200840F720002003B006000100095
:10036400E08018006011B8000005EB007A28E10075
:100374000A00390006008800C75DDD00F707B200F7
:10038400878075002D003700828171002A00880063
:10039400610560008180D1000080D3008502E900FE
:1003A400F9FF3B00060440008784480002003B003C
:1003B40060041400E0841C000988A30007003200D4
:1003C4008A81710082817100610164008904D10015
:1003D4000884D3008B05E800170037000978A300D0
:1003E40013003A001600E200130034008B05E90004
:1003F4000804440089844C000A4474000978A3006A
:100404000D003A001600E200070034008B05E900F5
:100414000804440089844C0001003A000B002000C9
:100424000978A300F7FF32000001EB000200370057
:10043400828171002A008800220007000CF0A700C6
:1004440003E0A800180037006420E10002003A002D
:10045400838F6C00180033000881BE000280BE0048
:10046400110037000084BE003C0007000083BE007A
:100474000485BE000280BE0038000700844F75006A
:10048400000006000280BE006450E1000500360052
:100494006420E100020036000968A30001003A006C
:1004A4000880BE0002C0A8004F0678004F05BE00B9
:1004B4004F04BE0000000600F0FF2F00F1FF2700EC
:1004C400F9FF370081002000618055000B003D00DA
:1004D4000B00200061FE2F000100E1001D0034002C
:1004E40082817100610164008904D1000884D30011
:1004F4000000E800FAFF3A00710020006100640087
:10050400030070000200600009003200610444002E
:10051400E0844C000988A500050032008B05E80042
:100524006808E10002003A008904D1000884D3007D
:10053400F20F20000258E10005003D00C75DDD0018
:10054400F907B200898075000800880000000600E1
:100554000BF827001B00880000000500C70ADE0016
:10056400F107B200F50FB20008003200E1CF4200FB
:100574000200320002E0A80024000500810F700090
:10058400010032000408050044000500810F7000DA
:1005940002003A00140005008502E9000000400052
:1005A40081C04800FCFF3B0002E0A80024000500D5
:0805B4000080FA0000000600BF
:1009DC000000FA00020007004205040000000000BD
:1009EC000800E20002003A001000070000000600B8
:1009FC00811F78000200E20002003D006000100040
:100A0C00E08018000600E20002003D0060011100C9
:100A1C00E0811900050007004F00E00002003B00D8
:100A2C0060001000E08018000000060002000700C3
:100A3C000480BE00000006006022B8000602200000
:100A4C000000D0008180D2000482D2008582D200C6
:100A5C000000A8000202520083825A0003003B00EF
:100A6C000202420083824A000000A1000603E90052
:100A7C00F3FF3A00000006000080FA0000000600B8
:100834000000FA0002000700680404000000000041
:100844000800E20002003A00100007000000060061
:10085400839F68000200E20002003D006000100077
:10086400E08018000600E20002003D006001110073
:10087400E0811900050007004F00E00002003B0082
:1008840060001000E0801800000006006022B8003C
:10089400060220000000D0008180D2000482D20031
:1008A4008582D2000000A8000202520083825A000E
:1008B40003003B000202420083824A000000A100C0
:1008C4000603E900F3FF3A00000006000080FA0086
:0408D400000006001A
:1008D8000000FA0002000700E00404000000000025
:1008E8000081BE001F0007000470A70003F0A100EC
:1008F8006509B100160032000D0035006828E100D6
:1009080006003500F0FF2F00F1FF27000600E20087
:1009180013003B0001002800000005000000400013
:10092800818048008502E900FCFF3A000800370092
:10093800F88F420002003C008000EB000000050038
:100948008100D1000080D3008502E800FCFF3A0056
:100958000600E20002003B0060001000E080180082
:1009680000000600C70ADE00F107B200F50FB2006A
:1009780008003200E1CF42000200320002E0A80085
:1009880024000500810F70000100320004080500F2
:1009980044000500810F700002003A0014000500B1
:1009A8008502E9000000400081C04800FCFF3B00D0
:1009B80002E0A800240005000080FA0000000600FC
:103494000220EF00010045001004E00007003200A4
:1034A400010045008A1F7800104578001EF70700C8
:1034B4004F0578000220EC00F6FF370000000600FC
:10112C001922AE0001003700FDFF37000A80FB00DA
:08113C001AA2B7000000060032
:1034C4006150E100FF003A008A1F78004A8820001A
:1034D400EFFF0700AAC0B30013F707000420EF00B2
:1034E4000620EF00A0468000B146800032F40700B9
:1034F4000000E0000060EF00010035000060EC0017
:103504004F0578000040E200310032008A1F780045
:1035140092438000A3438000A0468000B14680000F
:1035240088F407000000E0000060EF0001003D00A7
:103534000060EC004F0578000040E20024003200F7
:10354400104480006100E10017003A00901320004D
:1035540080A1B700CA02A800CA22A8008A1F780066
:103564000A802000CAFF0700AAC0B300EEF60700D5
:10357400D662A8009803200077762F000E20ED0075
:10358400FEFF3A001020ED00FCFF3A00D662A900CD
:103594009A852000BEFF0700AAC0B300E2F6070028
:1035A4004F0578000A003700CA02A900CA22A90000
:1035B400204E200080A1B7008A1F7800EA802000F6
:1035C400B3FF0700AAC0B300D7F607004F05780081
:1035D4008A1F780092438000A3438000A0468000A5
:1035E400B1468000F4F307000000E0000060EF0043
:1035F400010035000060EC004F0578000040E20057
:10360400310032008A1F7800B2438000C343800037
:10361400A0468000B14680004AF407000000E000A4
:103624000060EF0001003D000060EC004F057800F1
:103634000040E20024003200104480006100E100F8
:1036440017003A009013200080A1B700CA02A80016
:10365400CA22A8008A1F78000A8020008CFF070075
:10366400AAC0B300B0F60700D662A80098032000F1
:1036740077762F000E20ED00FEFF3A001020ED00BB
:10368400FCFF3A00D662A9009A85200080FF07005B
:10369400AAC0B300A4F607004F0578000A0037005B
:1036A400CA02A800CA22A900A03A200080A1B7003B
:1036B4008A1F78007A82200075FF0700AAC0B30031
:1036C40099F607004F0578008A1F7800B2438000FE
:1036D400C3438000A0468000B1468000B6F30700D3
:1036E4000000E0000060EF00010035000060EC0025
:1036F4004F0578000040E200310032008A1F780054
:10370400D2438000E3438000A0468000B14680009D
:103714000CF407000000E0000060EF0001003D0031
:103724000060EC004F0578000040E2002400320005
:10373400104480006100E10017003A00901320005B
:1037440080A1B700CA02A800CA22A8008A1F780074
:103754000A8020004EFF0700AAC0B30072F60700DB
:10376400D662A8009803200077762F000E20ED0083
:10377400FEFF3A001020ED00FCFF3A00D662A900DB
:103784009A85200042FF0700AAC0B30066F607002E
:103794004F0578000A003700CA02A900CA22A8000F
:1037A4001027200080A1B7008A1F78000A84200017
:1037B40037FF0700AAC0B3005BF607004F05780087
:1037C4008A1F7800D2438000E3438000A046800033
:1037D400B146800078F307000000E0000060EF00CD
:1037E400010035000060EC004F0578000040E20065
:1037F400310032008A1F7800F243800003448000C5
:10380400A0468000B1468000CEF307000000E0002F
:103814000060EF0001003D000060EC004F057800FF
:103824000040E20024003200104480006100E10006
:1038340017003A009013200080A1B700CA02A80024
:10384400CA22A8008A1F78000A80200010FF0700FF
:10385400AAC0B30034F60700D662A800980320007B
:1038640077762F000E20ED00FEFF3A001020ED00C9
:10387400FCFF3A00D662A9009A85200004FF0700E5
:10388400AAC0B30028F607004F0578000A003700E5
:10389400CA02A800CA22A8009013200080A1B70081
:1038A4008A1F7800EA802000F9FE0700AAC0B3004E
:1038B4001DF607004F057800104480006100E10008
:1038C40000003A006050E10004003A00204E20005D
:1038D40080A1B700CA02A900CA22A90000000600FC
:104400000A8020000B002000720009000B1D7800BC
:0444100000000600A2
:104414000180200020022A0065000900B0187800FD
:04442400000006008E
:103E90003400F8003600F800801F78002000200071
:103EA0000C000900B01F78008720A900A0012000A5
:103EB0000C0009004F1078004F0078003600F90020
:083EC0003400F9000040060087
:103E20003400F8003600F800801F780020002000E1
:103E30000C000900B01F78009800200077352200A0
:103E40000E20ED00FEFF3A001020ED00FCFF3A00CE
:103E50008400A900E04580006000E10003003A0012
:103E600010002000E0458800020037000020EF002D
:103E7000E0458800A00120000C0009004F107800E8
:103E80004F0078003600F9003400F90000400600C9
:104044005045000052490000474F00002121000064
:044054002100000047
:04405800560000000E
:04405C00560000000A
:10406000564500006C4F00004349000044410000E9
:104070004445000020310000202D000020320000C7
:1040800035250000000000000000000000000000D6
:1040900000560000456C00004F43000049440000FA
:1040A0004144000045200000322000002D20000087
:1040B0003530000025000000000000000000000076
:1040C00000000000564500006C4F0000434900000E
:1040D000444100004445000020330000202D000032
:1040E000203700003525000000000000000000001F
:1040F0000000000000560000456C00004F43000027
:1041000049440000414400004520000034200000E4
:104110002D2000003130000030250000000000009C
:08412000000000000000000097
:104128007B140000863F00007B140000064000005E
:10413800B81E0000494000007B14000086400000C3
:044148000000000073
:10414C0045730000747500006661000021000000DA
:10415C00546500006D700000092000002020000054
:10416C002020000020200000204C000044520000C1
:10417C00095000004F540000002800006E7500002C
:08418C006C6C0000290000002A
:1041940030000000000000000000000000000000EB
:0441A4000000000017
:1041A80030000000000000000000000000000000D7
:0441B8000000000003
:0441BC0000000000FF
:0841C000B043000020000000E4
:1041C80030000000000000000000000000000000B7
:0441D80000000000E3
:1041DC0000000000803F0000CDCC0000CC3D000072
:1041EC000AD70000233C00006F120000833A000045
:1041FC0017B70000D1380000ACC50000273700000D
:10420C00BD3700008635000095BF0000D633000096
:10421C0077CC00002B3200005F700000893000006A
:10422C00FFE60000DB2E000008E500003C1E00004D
:08423C0060420000A20D000029
:1042440000000000803F000000000000204100004A
:1042540000000000C8420000000000007A44000092
:10426400004000001C46000000500000C34700004E
:10427400002400007449000080960000184B0000E0
:1042840020BC0000BE4C0000286B00006E4E0000F5
:10429400F902000015500000EC780000AD60000049
:0842A400CAF20000497100009C
:1042AC0001000000000000000800000000000000F9
:1042BC0040000000000000000002000000000000B0
:1042CC000010000000000000008000000000000052
:1042DC0000000000040000000000000020000000AE
:1042EC0000000000000100000000000000080000B9
:1042FC000000000000400000000000000000000072
:10430C0001000000000000000A0000000000000096
:10431C006400000000000000E80300000000000042
:10432C001027000000000000A08600000100000023
:10433C00404200000F000000809600009800000032
:10434C0000E10000F505000000CA00009A3B0000E7
:10435C000100000000000000100000000000000040
:10436C000001000000000000001000000000000030
:10437C000000000001000000000000001000000020
:10438C000000000000010000000000000010000010
:10439C003031000032330000343500003637000075
:1043AC00383900006162000063640000656600003B
:1043BC00003000003132000033340000353600008C
:1043CC0037380000394100004243000044450000EA
:0443DC004600000097
:1043E000252E000032660000002500002E3200005D
:0443F0006600000063
:0C43F400252E00003266000000000000D2
:0200000401F009
:1C000000068300003F000000B38700000F3100000F3300000700000003C0000096
:00000001FF
