:1000000008070400000000000000000000000000DD
:1000100000000000000000000000000000000000E0
:1000200000000000000000000000000000000000D0
:1000300000000000000000000000000000000000C0
:1000400000000000000000000000000000000000B0
:1000500000000000000000000000000000000000A0
:100060000000000000000000000000000000000090
:100070000000000000000000000000000000000080
:100080000000000000000000000000000000000070
:100090000000000000000000000000000000000060
:1000A0000000000000000000000000000000000050
:1000B0000000000000000000000000000000000040
:1000C0000000000000000000000000000000000030
:1000D0000000000000000000000000000000000020
:1000E0000000000000000000000000000000000010
:1000F0000000000000000000000000000000000000
:1001000000000000000000000000000000000000EF
:1001100000000000000000000000000000000000DF
:1001200000000000000000000000000000000000CF
:1001300000000000000000000000000000000000BF
:1001400000000000000000000000000000000000AF
:10015000000000000000000000000000000000009F
:10016000000000000000000000000000000000008F
:10017000000000000000000000000000000000007F
:10018000000000000000000000000000000000006F
:10019000000000000000000000000000000000005F
:1001A000000000000000000000000000000000004F
:1001B000000000000000000000000000000000003F
:1001C000000000000000000000000000000000002F
:1001D000000000000000000000000000000000001F
:1001E000000000000000000000000000000000000F
:1001F00000000000000000000000000000000000FF
:100E10008F892000F0FF200020A0B70000002000F4
:100E200034A0B700400020004420B700660902004B
:100E30000000000070090200000000008A1F780016
:100E4000F0FF2F00A8A2B700C622EF00D222EF00C9
:100E5000DE22EF00D822EF00E082BF006100E10057
:100E600015003A00404180007F00E10004003D0091
:100E7000110020008082200010884000020037000E
:100E80000020EF004041880098022000770B2B00E3
:100E90000E20ED00FEFF3A001020ED00FCFF3A00AE
:100EA000C1822000808220001080400090407800A5
:100EB000C080200001487800E082BF007000E1009F
:100EC00008003A0010002000A0428800980220008C
:100ED000770B2B000E20ED00FEFF3A001020ED00F6
:100EE000FCFF3A00E082BF006200E1003F003A00F0
:100EF000218920000081200010814000C182200053
:100F00008082200010804000104978000020EF000F
:100F10004041880098022000770B2B000E20ED0046
:100F2000FEFF3A001020ED00FCFF3A008A408000EE
:100F30004DFF0700804080006600E1000C003D008E
:100F400011002000008120001088400010002000C7
:100F5000DAA2B70018012000F76A24000E20ED0085
:100F6000FEFF3A001020ED00FCFF3A00DA22EF000D
:100F7000804080006600E10016003A00100020006A
:100F8000A04088000020EF00904088009040800042
:100F90006500E1000F003C00218920002081200035
:100FA0001081400061852000208120009080400059
:100FB000124078001104E1000200320020002000FD
:100FC000A0408800110020002081200010884000EF
:100FD000EEFF3700C1822000808220001080400098
:100FE00090407800C0802000014878009042800046
:100FF0006300E10010003A0010002000DAA2B70000
:101000007819200017732E000E20ED00FEFF3A0025
:101010001020ED00FCFF3A00DA22EF000020EF0084
:101020009042880056FE0700A04280006100E10067
:1010300001003A0081FE0700E082BF006300E1008A
:101040002E003A0098022000770B2B000E20ED00B6
:10105000FEFF3A001020ED00FCFF3A00A0408000A7
:101060006200E10006003A00904280006300E10067
:1010700003003D0011002000208520001088400062
:101080003FFE07000020EF00404088000020EF00F6
:1010900020408800204080006400E10009003D00FD
:1010A000C18020004080200090804000D0C2B3006A
:1010B0008048780011002000408020001088400007
:1010C000F4FF37000020EF0020408800204080001F
:1010D0006600E10009003D002189200040802000D9
:1010E00090804000D0C2B3008048780011002000FA
:1010F0004080200010884000F4FF370080408000CE
:101100006600E10013003A00A04080006100E100A9
:1011100010003A00104080006000E1000C003A002E
:1011200010002000DAA2B70028052000F7162600DC
:101130000E20ED00FEFF3A001020ED00FCFF3A000B
:1011400000000000DA22EF001000200010408800AC
:1011500003FF0700804080006600E10009003A00BC
:10116000A04080006200E10006003A00504180008B
:101170006100E10002003A00F3FD070001003700C2
:10118000FBFE0700A04080006000E10002003A0082
:10119000ABFD07000B0037000020EF003041880056
:1011A00041062000608220001008E10005003400A4
:1011B000A3FD07001100200060822000108840007D
:1011C000F7FF3700574D21000E20ED00FEFF3A00DB
:1011D00000000000BFFD07001FFF37004F0578002B
:0411E000FFFF3700D6
:100C680032003700D1802000208920009048780089
:100C780038003700D1802000308920009048780063
:100C8800E18020002089200090487800310037005A
:100C9800D18020004089200090487800E180200021
:100CA8003089200090487800F180200020892000B9
:100CB8009048780027003700D18020005089200014
:100CC80090487800E1802000408920009048780012
:100CD800F180200030892000904878001D003700FE
:100CE800D18020006089200090487800E1802000B1
:100CF8005089200090487800F18020004089200029
:100D080090487800D18020006089200090487800C1
:100D1800E18020005089200090487800F180200070
:100D280040892000904878000A0037006050E100B0
:100D3800CCFF32006150E100CEFF32006250E1008A
:100D4800D3FF32006350E100DBFF32006450E10062
:080D5800E3FF32000000060079
:100980000020EF00404188000020EF0080408800F8
:100990000020EF00A04088000020EF0050408800B9
:1009A0000020EF00904088000020EF0030418800D8
:1009B0000020EF00104088000020EF000040880079
:1009C0000020EF00304388000020EF0070438800D3
:1009D0000020EF00304088000020EF0060438800D6
:1009E0000020EF00204088000020EF0040408800F9
:1009F0009000200020418800100020005041880015
:100A00000020EF0040408800404080006600E10088
:100A10000900310021892000808020009080400062
:100A200000C2B300804878001100200080802000C0
:0C0A300010884000F4FF370000000600B2
:100A3C00204180006000E10034003500C1852000B9
:100A4C00408220001080400090407800C080200040
:100A5C0001487800D180200000C3B30080487800A2
:100A6C00E180200000C3B30080487800F1802000B2
:100A7C0000C3B300804878001100200040822000A1
:100A8C0010881000DA22EF000020EF00604288008E
:100A9C0041062000C08420001008E1000900340049
:100AAC00B0842000104078006104E10001003A009D
:100ABC0060FF070011002000C08420001088400057
:100ACC00F3FF370010002000904388009143800012
:100ADC00408220001008E10008003D00574D210025
:100AEC000E20ED00FEFF3A00000000001100200077
:100AFC002087200010884000F4FF370010002000F1
:100B0C00DAA2B70070FF0700C9FF3700E00F200022
:100B1C00D4A2B700A6FE0700F207200011000900BE
:100B2C000200D80001007800C8A2B70057052D00BC
:100B3C000E20ED00FEFF3A0000000000D00F200058
:100B4C00D4A2B7009AFE0700F2072000110009009A
:100B5C000200D80001007800C8A2B70057052D008C
:100B6C000E20ED00FEFF3A0000000000B00F200048
:100B7C00D4A2B7008EFE0700F20720001100090076
:100B8C000200D80001007800C8A2B70057052D005C
:100B9C000E20ED00FEFF3A00000000007000200067
:100BAC00D4A2B70082FE0700F20720001100090052
:100BBC000200D80001007800C8A2B70057052D002C
:100BCC000E20ED00FEFF3A0000000000E082BF00A6
:100BDC007300E1001F003A0098022000770B2B00F5
:100BEC000E20ED00FEFF3A001020ED00FCFF3A0055
:100BFC00DA22EF000020EF00A04288005DFF070022
:100C0C000020EF00404088000020EF0020408800CA
:100C1C00204080006400E10009003D00C1802000FC
:100C2C004080200090804000D0C2B3008048780003
:100C3C00110020004080200010884000F4FF370095
:100C4C00D622EF00E08420001080FB00CAA2B7007F
:0C0C5C0001003700ADFF3700000006006B
:10084000700F2000D6A2B700E08420001080FB00CB
:10085000CAA2B700574D21000E20ED00FEFF3A005E
:1008600000000000B00F2000D6A2B700F0842000E6
:100870001080FB00CAA2B700574D21000E20ED00EA
:10088000FEFF3A0000000000D00F2000D6A2B70003
:10089000008520001080FB00CAA2B700574D210040
:1008A0000E20ED00FEFF3A0000000000E00F2000E7
:1008B000D6A2B700108520001080FB00CAA2B700A6
:1008C000574D21000E20ED00FEFF3A000000000011
:0408D000000006001E
:1008D4000200FA008A1F78000020EF00804388009D
:1008E400804380006400E10013003100E1842000B3
:1008F400008720001080400000079800C18020007D
:100904000087200010804000104578003BFE07005F
:100914008E00900080487800574D21000E20ED0095
:10092400FEFF3A00000000001100200000872000B4
:1009340010884000EAFF37004F0578000080FA0075
:0409440000000600A9
:100200007C00370041872000F0CBB30080487800A5
:10021000D500370041872000F0CFB3008048780038
:10022000D10037004187200080C8B30080487800A3
:10023000CD0037004187200030C8B30080487800E7
:10024000C90037004187200060CCB30080487800A7
:10025000C50037004187200010CAB30080487800ED
:10026000C10037004187200060C8B3008048780093
:10027000BD00370041872000E0C8B3008048780007
:10028000B90037004187200000C9B30080487800DA
:10029000B500370041872000B0C8B300804878001F
:1002A000B10037004187200090CFB300804878002C
:1002B000AD0037004187200010CEB30080487800A1
:1002C000A90037004187200070CCB3008048780037
:1002D000A500370041872000B0CAB30080487800ED
:1002E000A10037004187200000CCB300804878008F
:1002F0009D00370041872000C0C8B30080487800C7
:10030000990037004187200080C9B30080487800F9
:100310009500370041872000F0CAB300804878007C
:10032000910037004187200020C9B3008048780041
:100330008D0037004187200010CCB3008048780042
:10034000890037004187200030CEB3008048780014
:10035000850037004187200000CCB300804878003A
:10036000810037004187200090CFB300804878009B
:100370007D0037004187200040CAB30080487800E4
:10038000790037004187200000CBB3008048780017
:10039000750037004187200090C9B300804878007D
:1003A000710037004187200020C9B30080487800E1
:1003B0006D0037004187200020C8B30080487800D6
:1003C000690037004187200080CFB3008048780063
:1003D000650037004187200000C8B30080487800DE
:1003E000610037004187200000C9B30080487800D1
:1003F0005D003700D0C2B3000054E10081FF32003D
:1004000000C2B3000054E10082FF320010C6B30006
:100410000054E10083FF320020C6B3000054E10025
:1004200084FF320030C6B3000054E10085FF320083
:1004300040C6B3000054E10086FF320050C6B3004E
:100440000054E10087FF320060C6B3000054E100B1
:1004500088FF320070C6B3000054E10089FF32000B
:1004600080C6B3000054E1008AFF320090C6B3009A
:100470000054E1008BFF3200A0C6B3000054E1003D
:100480008CFF3200C0C6B3000054E1008DFF320083
:10049000E0C6B3000054E1008EFF3200F0C6B300A6
:1004A0000054E1008FFF320000C7B3000054E100A8
:1004B00090FF320010C7B3000054E10091FF3200FA
:1004C00020C7B3000054E10092FF320030C7B300F0
:1004D0000054E10093FF320050C7B3000054E10024
:1004E00094FF320060C7B3000054E10095FF320072
:1004F00000C3B3000054E10096FF320010C3B30004
:100500000054E10097FF320020C3B3000054E10023
:1005100098FF320030C3B3000054E10099FF32006D
:1005200040C3B3000054E1009AFF320050C3B3004F
:100530000054E1009BFF320060C3B3000054E100AF
:100540009CFF320070C3B3000054E1009DFF3200F5
:1005500080C3B3000054E1009EFF320090C3B3009B
:100560000054E1009FFF3200408720001080FB0014
:040570000000060081
:1005BC000000FA008A1F7800A08720001000E000DD
:1005CC0002003A001A002000E7FF0700B043800049
:1005DC00C1438000D2E62400631C2400EBFF07001B
:1005EC009203230003002000020040008380480097
:1005FC004089DE00CF89DE00F0FF270001002000DB
:10060C000000610081806100B0438800C143880014
:0C061C004F0578000080FA000000060086
:100574000000FA000A0078008000EB00B043880015
:10058400C143880010002000D04388000080FA0096
:04059400000006005D
:100598000000FA00020AB800500088000200B80003
:1005A80081004200032AB800810042000080FA005E
:0405B8000000060039
:100D60006DFE07003FFE07002FFE07000000060093
:100718000020EF0040408800404080007400E10065
:1007280017003100404080006600E10008003100F9
:10073800E18720008080200010814000218920006E
:1007480080802000108040001049780008003700A1
:10075800E187200080802000108140004040800018
:10076800E600500060812000010040001049780038
:10077800110020008080200010884000E6FF37002C
:040788000000060067
:100664000020EF0050408800504080006400E1000A
:100674000D003D00C1802000A080200010814000BA
:1006840031408000A080200090804000E08720005E
:10069400010040001049780011002000A0802000D3
:1006A40010884000F0FF3700110020006080200017
:1006B40010884000304080007700E10002003A00DA
:1006C4000020EF0030408800C08020001080FB0034
:1006D400E0438800C1802000F0802000904878002A
:1006E400F1802000E043800080487800D080200022
:1006F4001080FB00E0438800D1802000E0802000CF
:1007040090487800E1802000E04380008048780031
:0407140000000600DB
:100628000020EF0040408800404080007400E10056
:1006380009003100E1872000808020009080400080
:1006480000C2B3008048780011002000808020009C
:0C06580010884000F4FF3700000006008E
:100948000020EF00404088004140800000672C00F4
:100958000008E100050031008AFF070011002000AF
:100968008080200010884000F7FF37000020EF004B
:08097800504188000000060058
:10078C000020EF0050408800504080006400E100E1
:10079C000D003D00C1802000A08020001081400091
:1007AC0061438000A08020009080400020892000C0
:1007BC00010040001049780011002000A0802000AA
:1007CC0010884000F0FF370011002000C086200088
:1007DC0010884000604380006200E10002003A0093
:1007EC000020EF0060438800C08020001080FB00D8
:1007FC00E0438800C1802000F08020009048780001
:10080C00F1802000E043800080487800D0802000F8
:10081C001080FB00E0438800D1802000E0802000A5
:10082C0090487800E1802000E04380008048780008
:04083C0000000600B2
:100D7000704380006000E10014003A000020EF00A2
:100D800030438800304380006400E1000C003D00E7
:100D9000C180200060862000108140003043800028
:100DA000E300100080862000010040001049780018
:100DB000110020006086200010884000F1FF3700FD
:100DC0001000200070438800100037000020EF0062
:100DD00030438800304380006400E10009003D009A
:100DE000C1802000608620009080400000C2B300D7
:100DF00080487800110020006086200010884000A4
:100E0000F4FF37000020EF00704388000000060068
:1012CC000A8020000B0020004B0009000B1D780049
:0412DC000000060008
:1012E00001802000208F280024000900B018780019
:1012F000B0587800C1842000E09328001300090052
:10130000B0187800B1842000D0932800B05878003D
:0413100000000600D3
:0411E4000000000007
:0411E8000000000003
:0411EC0000000000FF
:0411F00000000000FB
:0411F40000000000F7
:0411F80000000000F3
:0811FC002D2D00002D2D000037
:0412040000000000E6
:0412080000000000E2
:04120C0000000000DE
:1012100064730000706900006333000030660000F2
:0C122000343000003131000020200000BC
:04122C0009000000B5
:0412300000000000BA
:0412340000000000B6
:0412380001000000B1
:10123C002D20000061620000636400006566000000
:10124C0067680000696A00006C6E00006F70000037
:10125C0071720000737500007630000031320000AE
:10126C0033340000353600003738000039010000F7
:04127C00000000006E
:08128000BFBF0000BFBF00006A
:041288000000000062
:04128C00000000005E
:0C1290007566000073310000343500006A
:10129C0030310000323300003435000036370000A6
:0412AC0038390000CD
:0412B000000000003A
:0812B400657200006F200000CC
:0412BC00000000002E
:0412C000000000002A
:0412C4000000000026
:0412C8000000000022
:0200000401F009
:1C000000068300003F000000B38700000F3100000F3300000700000003C0000096
:00000001FF
