:1000000000010400000000000000000000000000EB
:1000100000000000000000000000000000000000E0
:1000200000000000000000000000000000000000D0
:1000300000000000000000000000000000000000C0
:1000400000000000000000000000000000000000B0
:1000500000000000000000000000000000000000A0
:100060000000000000000000000000000000000090
:100070000000000000000000000000000000000080
:100080000000000000000000000000000000000070
:100090000000000000000000000000000000000060
:1000A0000000000000000000000000000000000050
:1000B0000000000000000000000000000000000040
:1000C0000000000000000000000000000000000030
:1000D0000000000000000000000000000000000020
:1000E0000000000000000000000000000000000010
:1000F0000000000000000000000000000000000000
:1001000000000000000000000000000000000000EF
:1001100000000000000000000000000000000000DF
:1001200000000000000000000000000000000000CF
:1001300000000000000000000000000000000000BF
:1001400000000000000000000000000000000000AF
:10015000000000000000000000000000000000009F
:10016000000000000000000000000000000000008F
:10017000000000000000000000000000000000007F
:10018000000000000000000000000000000000006F
:10019000000000000000000000000000000000005F
:1001A000000000000000000000000000000000004F
:1001B000000000000000000000000000000000003F
:1001C000000000000000000000000000000000002F
:1001D000000000000000000000000000000000001F
:1001E000000000000000000000000000000000000F
:1001F00000000000000000000000000000000000FF
:10020000EF812000F0FF200020A0B70000002000B8
:1002100034A0B700400020004420B700F6010200DF
:10022000000000000002020000000000F0FF2F00AC
:10023000A8A2B700D222EF00D622EF00C622EF001C
:10024000CA22EF000020EF002040880020408000FC
:100250006500E10034003E00D602A9003040800075
:10026000C100DD0080802000010040001000780007
:10027000CAA2B700574D21000E20ED00FEFF3A0044
:1002800000000000D602A800D622A900104080007D
:10029000C100DD00808020000100400010007800D7
:1002A000CAA2B700574D21000E20ED00FEFF3A0014
:1002B00000000000D622A800D642A900004080001D
:1002C000C100DD00808020000100400010007800A7
:1002D000CAA2B700574D21000E20ED00FEFF3A00E4
:1002E00000000000D642A800D662A900E0408000CD
:1002F000C100DD0080802000010040001000780077
:10030000CAA2B700574D21000E20ED00FEFF3A00B3
:1003100000000000D662A8001100200040802000EC
:1003200010884000C9FF37001100200060802000C5
:1003300010884000304080006A00E10005003A006B
:100340000020EF00304088001100200020802000B5
:1003500010884000104080006A00E10005003A006B
:100360000020EF00104088001100200000802000D5
:1003700010884000004080006A00E10005003A005B
:100380000020EF000040880011002000C081200004
:1003900010884000E04080006A00E10002003A005E
:1003A0000020EF00E0408800A6FF3700FFFF370085
:1003EC000A8020000B0020000E0009000B1D780075
:0403FC0000000600F7
:1004000001802000801D28000E000900B01878002F
:0404100000000600E2
:0403B0000000000049
:0403B4000000000045
:0403B8000000000041
:0403BC00000000003D
:1003C0004000000079000000240000003000000020
:1003D0001900000012000000020000007800000078
:0803E000000000001000000005
:0403E8000000000011
:0200000401F009
:1C000000068300003F000000B38700000F3100000F3300000700000003C0000096
:00000001FF
