:10000000D00104000000000000000000000000001B
:1000100000000000000000000000000000000000E0
:1000200000000000000000000000000000000000D0
:1000300000000000000000000000000000000000C0
:1000400000000000000000000000000000000000B0
:1000500000000000000000000000000000000000A0
:100060000000000000000000000000000000000090
:100070000000000000000000000000000000000080
:100080000000000000000000000000000000000070
:100090000000000000000000000000000000000060
:1000A0000000000000000000000000000000000050
:1000B0000000000000000000000000000000000040
:1000C0000000000000000000000000000000000030
:1000D0000000000000000000000000000000000020
:1000E0000000000000000000000000000000000010
:1000F0000000000000000000000000000000000000
:1001000000000000000000000000000000000000EF
:1001100000000000000000000000000000000000DF
:1001200000000000000000000000000000000000CF
:1001300000000000000000000000000000000000BF
:1001400000000000000000000000000000000000AF
:10015000000000000000000000000000000000009F
:10016000000000000000000000000000000000008F
:10017000000000000000000000000000000000007F
:10018000000000000000000000000000000000006F
:10019000000000000000000000000000000000005F
:1001A000000000000000000000000000000000004F
:1001B000000000000000000000000000000000003F
:1001C000000000000000000000000000000000002F
:1001D000000000000000000000000000000000001F
:1001E000000000000000000000000000000000000F
:1001F00000000000000000000000000000000000FF
:1003A0006F812000F0FF200020A0B7000000200097
:1003B00034A0B700400020004420B70040020200F3
:1003C000000000004A020200000000008A1F7800BE
:1003D000F0FF2F00A8A2B700D222EF00C622EF0044
:1003E00010002000D6A2B700CA22EF000020EF00C4
:1003F000A0408800A04080007400E100120031009D
:10040000E0002000D6A2B70001802000408120003B
:10041000108040001045780079FF0700CAA2B7009D
:1004200098022000770B2B000E20ED00FEFF3A0013
:100430001020ED00FCFF3A00110020004081200058
:1004400010884000EBFF3700E8FF37004F057800C9
:04045000FFFF370073
:100200000220EF0028003700310220006200370092
:100210003108200060003700710A20005E003700BE
:10022000110A20005C003700610820005A003700E6
:10023000E10820005800370001092000560037006F
:10024000B108200054003700910F20005200370001
:10025000110E200050003700710C20004E003700B6
:10026000B10A20004C003700310A20004A00370054
:10027000C1082000480037008109200046003700EF
:10028000F10A200044003700210920004200370015
:10029000110C200040003700310E20003E003700D6
:1002A000410E20003C00370010C6B3000054E100AE
:1002B000D5FF320020C6B3000054E100D4FF320065
:1002C00030C6B3000054E100D3FF320040C6B30093
:1002D0000054E100D2FF320050C6B3000054E100E8
:1002E000D1FF320060C6B3000054E100D0FF3200FD
:1002F00070C6B3000054E100CFFF320080C6B300E7
:100300000054E100CEFF320090C6B3000054E1007B
:10031000CDFF3200A0C6B3000054E100CCFF320094
:10032000C0C6B3000054E100CBFF3200E0C6B3000A
:100330000054E100CAFF3200F0C6B3000054E100EF
:10034000C9FF320000C7B3000054E100C8FF32000B
:1003500010C7B3000054E100C7FF320020C7B3004C
:100360000054E100C6FF320030C7B3000054E10082
:10037000C5FF320050C7B3000054E100C4FF320093
:1003800060C7B3000054E100C3FF3200A0C7B30050
:100390000054E100C2FF32000100780000000600B6
:100480000A8020000B0020000A0009000B1D7800E4
:040490000000060062
:1004940001802000A02228000A000900B01878007A
:0404A400000006004E
:100454006162000063640000656600006768000074
:10046400696A00006C6E00006F7000007172000019
:0804740073750000767A0000A8
:04047C00000000007C
:0200000401F009
:1C000000068300003F000000B38700000F3100000F3300000700000003C0000096
:00000001FF
