:1000000040050400000000000000000000000000A7
:1000100000000000000000000000000000000000E0
:100020000000000000000000F204000000000000DA
:10003000000000001E05000000000000000000009D
:1000400000000000000000000000000000000000B0
:1000500000000000000000000000000000000000A0
:100060000000000000000000000000000000000090
:100070000000000000000000000000000000000080
:100080000000000000000000000000000000000070
:100090000000000000000000000000000000000060
:1000A0000000000000000000000000000000000050
:1000B0000000000000000000000000000000000040
:1000C0000000000000000000000000000000000030
:1000D0000000000000000000000000000000000020
:1000E0000000000000000000000000000000000010
:1000F0000000000000000000000000000000000000
:1001000000000000000000000000000000000000EF
:1001100000000000000000000000000000000000DF
:1001200000000000000000000000000000000000CF
:1001300000000000000000000000000000000000BF
:1001400000000000000000000000000000000000AF
:10015000000000000000000000000000000000009F
:10016000000000000000000000000000000000008F
:10017000000000000000000000000000000000007F
:10018000000000000000000000000000000000006F
:10019000000000000000000000000000000000005F
:1001A000000000000000000000000000000000004F
:1001B000000000000000000000000000000000003F
:1001C000000000000000000000000000000000002F
:1001D000000000000000000000000000000000001F
:1001E000000000000000000000000000000000000F
:1001F00000000000000000000000000000000000FF
:100A8000AF802000F0FF200020A0B7000000200071
:100A900034A0B700400020004420B700280B02001B
:100AA000000000008A1F78008B1F7800F0FF2F00E5
:100AB000A8A2B700C622EF00CDA2A900CDC2A8000F
:100AC000D222EF00D802A900D822A900D842A9005A
:100AD000D862A900D902A800DE22EF008420EF002E
:100AE000CA22EF00D022EF00D622EF00E222EF0070
:100AF0008C00A8008C60A800F0FF2F0002A1B700B6
:100B000000E823000CA1B7000007280004A1B700EB
:100B10000000280010A1B7000020EF00004088006E
:100B2000404080008000EB0053FF07006239240042
:100B3000B3E8230068FE07001040880021408800C9
:100B4000D642A800070520000E20ED00FEFF3A0067
:100B5000D642A9001A4080002B408000EBFE07001F
:100B6000004080006000E1005B013A0002002000CC
:100B70008334240010408000214080004CFE070098
:100B80000000E0000060EF00010034000060EC00B5
:100B90000040E2000A0032001A4080002B40800032
:100BA000DAFE0700E2A2A900D662A900DC02A800D2
:100BB000DC22A800DC42A800DC62A8004501370066
:100BC00002002000433324001040800021408000B8
:100BD00037FE07000000E0000060EF000100340075
:100BE0000060EC000040E200320032000200200011
:100BF00083342400104080002140800031FE070033
:100C00000000E0000060EF0001003C000060EC002C
:100C10000040E20027003200DC02A900DC22A8002C
:100C2000DC42A800DC62A8000020EF003040880011
:100C300031408000403820000008E10009003D00FC
:100C4000D662A9001A4080002B408000AFFE07004A
:100C5000E2A2A9001100200060802000108840005E
:100C6000F3FF3700DC02A900DC22A800DC42A80068
:100C7000DC62A8000020EF00304088003140800096
:100C8000403820000008E10009003D00D662A800BD
:100C90001A4080002B4080009CFE0700E2A2A900C1
:100CA000110020006080200010884000F3FF370012
:100CB0000801370002002000032F240010408000AC
:100CC00021408000FAFD07000000E0000060EF0016
:100CD000010034000060EC000040E200320032000D
:100CE0000200200043332400104080002140800097
:100CF000F4FD07000000E0000060EF0001003C0090
:100D00000060EC000040E20027003200DC02A80096
:100D1000DC22A900DC42A800DC62A8000020EF0071
:100D20003040880031408000802520000008E1002C
:100D300009003D00D662A9001A4080002B408000C7
:100D400072FE0700E2A2A9001100200060802000CE
:100D500010884000F3FF3700DC02A800DC22A90065
:100D6000DC42A800DC62A8000020EF0030408800D0
:100D700031408000802520000008E10009003D008E
:100D8000D662A8001A4080002B4080005FFE07005A
:100D9000E2A2A9001100200060802000108840001D
:100DA000F3FF3700CB00370002002000032A2400A5
:100DB0001040800021408000BDFD07000000E000E1
:100DC0000060EF00010034000060EC000040E20031
:100DD0003200320002002000032F24001040800067
:100DE00021408000B7FD07000000E0000060EF0038
:100DF00001003C000060EC000040E20027003200EF
:100E0000DC02A800DC22A800DC42A900DC62A80009
:100E10000020EF003040880031408000C0122000E8
:100E20000008E10009003D00D662A9001A408000D8
:100E30002B40800035FE0700E2A2A900110020002F
:100E40006080200010884000F3FF3700DC02A8001B
:100E5000DC22A800DC42A900DC62A8000020EF0030
:100E60003040880031408000C01220000008E100BE
:100E700009003D00D662A8001A4080002B40800087
:100E800022FE0700E2A2A9001100200060802000DD
:100E900010884000F3FF37008E003700020020006A
:100EA00083242400104080002140800080FD070042
:100EB0000000E0000060EF00010034000060EC0082
:100EC0000040E2003200320002002000032A240029
:100ED00010408000214080007AFD07000000E00003
:100EE0000060EF0001003C000060EC000040E20008
:100EF00027003200DC02A800DC22A800DC42A800A7
:100F0000DC62A9000020EF0030408800110E2000B4
:100F1000608020001008E10009003400D662A900BA
:100F20001A4080002B408000F8FD0700E2A2A900D3
:100F3000110020006080200010884000F3FF37007F
:100F4000DC02A800DC22A800DC42A800DC62A900C8
:100F50000020EF0030408800110E2000608020004B
:100F60001008E10009003400D662A8001A40800091
:100F70002B408000E5FD0700E2A2A900110020003F
:100F80006080200010884000F3FF370051003700D8
:100F900002002000031A240010408000214080003D
:100FA00043FD07000000E0000060EF000100340096
:100FB0000060EC000040E20032003200020020003D
:100FC0008324240010408000214080003DFD070064
:100FD0000000E0000060EF0001003C000060EC0059
:100FE0000040E20027003200DC02A800DC22A8005A
:100FF000DC42A900DC62A9000020EF00304088003C
:1010000061092000608020001008E1000900340020
:10101000D662A9001A4080002B408000BBFD07006B
:10102000E2A2A9001100200060802000108840008A
:10103000F3FF3700DC02A800DC22A800DC42A90094
:10104000DC62A9000020EF00304088006109200028
:10105000608020001008E10009003400D662A8007A
:101060001A4080002B408000A8FD0700E2A2A900E2
:10107000110020006080200010884000F3FF37003E
:101080001400370002002000031A240010408000E2
:10109000214080000BFD07000000E0000060EF0031
:1010A00001003C000060EC000040E200090032005A
:1010B0001A4080002B40800094FD0700D662A800F3
:1010C000DC02A900DC22A900DC42A900DC62A90044
:1010D000E2A2A9005A01370002002000031A2400EE
:1010E0001040800021408000F6FC07000000E00076
:1010F0000060EF0001003D000060EC000040E200F5
:101100000A003200D662A8001A4080002B408000FE
:101110007EFD0700E2A2A800DC02A900DC22A900F3
:10112000DC42A900DC62A900450137000200200072
:10113000031A24001040800021408000DCFC0700DE
:101140000000E0000060EF00010034000060EC00EF
:101150000040E2003200320002002000832424001C
:101160001040800021408000D6FC07000000E00015
:101170000060EF0001003C000060EC000040E20075
:1011800027003200DC02A800DC22A800DC42A90013
:10119000DC62A9000020EF003040880061092000D7
:1011A000608020001008E10009003400D662A90028
:1011B0001A4080002B40800054FD0700E2A2A900E5
:1011C000110020006080200010884000F3FF3700ED
:1011D000DC02A800DC22A800DC42A900DC62A90035
:1011E0000020EF003040880061092000608020006E
:1011F0001008E10009003400D662A8001A408000FF
:101200002B40800041FD0700E2A2A8001100200051
:101210006080200010884000F3FF3700080137008D
:101220000200200083242400104080002140800020
:101230009FFC07000000E0000060EF0001003400A8
:101240000060EC000040E2003200320002002000AA
:10125000032A2400104080002140800099FC0700F0
:101260000000E0000060EF0001003C000060EC00C6
:101270000040E20027003200DC02A800DC22A800C7
:10128000DC42A800DC62A9000020EF0030408800AA
:10129000110E2000608020001008E10009003400D9
:1012A000D662A9001A4080002B40800017FD07007D
:1012B000E2A2A900110020006080200010884000F8
:1012C000F3FF3700DC02A800DC22A800DC42A80003
:1012D000DC62A9000020EF0030408800110E2000E1
:1012E000608020001008E10009003400D662A800E8
:1012F0001A4080002B40800004FD0700E2A2A900F4
:10130000110020006080200010884000F3FF3700AB
:10131000CB00370002002000032A24001040800088
:101320002140800062FC07000000E0000060EF0048
:10133000010034000060EC000040E20032003200A6
:1013400002002000032F2400104080002140800074
:101350005CFC07000000E0000060EF0001003C00C2
:101360000060EC000040E20027003200DC02A80030
:10137000DC22A800DC42A900DC62A8000020EF000B
:101380003040880031408000C01220000008E10099
:1013900009003D00D662A9001A4080002B40800061
:1013A000DAFC0700E2A2A900110020006080200002
:1013B00010884000F3FF3700DC02A800DC22A80000
:1013C000DC42A900DC62A8000020EF003040880069
:1013D00031408000C01220000008E10009003D00FB
:1013E000D662A8001A4080002B408000C7FC07008E
:1013F000E2A2A900110020006080200010884000B7
:10140000F3FF37008E00370002002000032F240076
:10141000104080002140800025FC07000000E00013
:101420000060EF00010034000060EC000040E200CA
:1014300032003200020020004333240010408000BC
:10144000214080001FFC07000000E0000060EF006A
:1014500001003C000060EC000040E2002700320088
:10146000DC02A800DC22A900DC42A800DC62A800A3
:101470000020EF00304088003140800080252000AF
:101480000008E10009003D00D662A9001A40800072
:101490002B4080009DFC0700E2A2A9001100200063
:1014A0006080200010884000F3FF3700DC02A800B5
:1014B000DC22A900DC42A800DC62A8000020EF00CA
:1014C0003040880031408000802520000008E10085
:1014D00009003D00D662A8001A4080002B40800021
:1014E0008AFC0700E2A2A900110020006080200011
:1014F00010884000F3FF3700510037000200200041
:10150000433324001040800021408000E8FB0700A6
:101510000000E0000060EF00010034000060EC001B
:101520000040E20032003200020020008334240038
:101530001040800021408000E2FB07000000E00036
:101540000060EF0001003C000060EC000040E200A1
:1015500027003200DC02A900DC22A800DC42A8003F
:10156000DC62A8000020EF0030408800314080009D
:10157000403820000008E10009003D00D662A900C3
:101580001A4080002B40800060FC0700E2A2A90006
:10159000110020006080200010884000F3FF370019
:1015A000DC02A900DC22A800DC42A800DC62A80062
:1015B0000020EF003040880031408000403820009B
:1015C0000008E10009003D00D662A8001A40800032
:1015D0002B4080004DFC0700E2A2A9001100200072
:1015E0006080200010884000F3FF370014003700AF
:1015F000020020008334240010408000214080003D
:10160000ABFB07000000E0000060EF0001003400C9
:101610000060EC000040E20009003200D662A90040
:101620001A4080002B40800038FC0700DC02A80034
:10163000DC22A800DC42A800DC62A800E2A2A9002B
:1016400037FD3700CF0578004F057800FFFF3700E2
:10070C000200FA000A00BE00F1FE07000007980084
:10071C00A2002000110009000200D800010078009E
:10072C0080017800A20020000E009000110009004A
:10073C000200D800A2002000110009000200D8001D
:10074C000100780000027800420620000E009000A4
:10075C00110009000200D800A200200011000900BD
:10076C000200D80001007800800078000020EF0023
:10077C0004017800000278006320E10039003D009C
:10078C0030003700E202A900E222A900E282A800B0
:10079C008A9FBE000305780096FE07004F05BE0039
:1007AC00CAA2B700574D21000E20ED00FEFF3A0003
:1007BC0000000000E202A900E222A900E282A900E6
:1007CC0026003700E202A900E222A800E282A9007A
:1007DC008A9FBE000205780086FE07004F05BE000A
:1007EC00CAA2B700574D21000E20ED00FEFF3A00C3
:1007FC0000000000E202A900E222A900E282A900A6
:10080C0016003700E202A800E222A900E282A90049
:10081C008A9FBE000105780076FE07004F05BE00DA
:10082C00CAA2B700574D21000E20ED00FEFF3A0082
:10083C0000000000E202A900E222A900E282A90065
:10084C00060037006020E100CEFF32006120E1009D
:10085C00DCFF32006220E100EAFF32000820EC00ED
:0C086C00C5FF37000080FA000000060005
:100200000200FA001E003700000C200000079800D2
:100210002F003700900F2000000798002C003700B7
:10022000400A20000007980029003700000B20003A
:10023000000798002600370090092000000798006A
:100240002300370020092000000798002000370015
:1002500020082000000798001D003700800F2000B4
:10026000000798001A0037000008200000079800D7
:10027000170037008009200000079800140037009D
:100280006050E100E0FF32006150E100E1FF320028
:100290006250E100E2FF32006350E100E3FF320010
:1002A0006450E100E4FF32006550E100E5FF3200F8
:1002B0006650E100E6FF32006750E100E7FF3200E0
:1002C0006850E100E8FF32006950E100E9FF3200C8
:0C02D0000E0090000080FA000000060004
:1002DC000000FA0002000700E20104000000000028
:1002EC000081BE001F0007000470A70003F0A100EE
:1002FC006509B100160032000D0035006828E100D8
:10030C0006003500F0FF2F00F1FF27000600E20089
:10031C0013003B0001002800000005000000400015
:10032C00818048008502E900FCFF3A000800370094
:10033C00F88F420002003C008000EB00000005003A
:10034C008100D1000080D3008502E800FCFF3A0058
:10035C000600E20002003B0060001000E080180084
:10036C0000000600C70ADE00F107B200F50FB2006C
:10037C0008003200E1CF42000200320002E0A80087
:10038C0024000500810F70000100320004080500F4
:10039C0044000500810F700002003A0014000500B3
:1003AC008502E9000000400081C04800FCFF3B00D2
:1003BC0002E0A800240005000080FA0000000600FE
:100878000000FA0002000700EE0404000000000077
:100888000400E20006003A000005EB000200E20066
:100898000F003E000000E200270032000C00370085
:1008A800A10088000200E2000400350008003C00B6
:1008B8000000E20020003200050037006000100050
:1008C800E080180002003B0001F02C001A003700FD
:1008D8000084BE006011B8006B0920000982CF00B7
:1008E800020039000882CF000441B000694252007A
:1008F8000E00320008003B00828171006101640033
:100908008904D1000884D3008B05E8000442E8007C
:10091800F9FF3A00050037000804440089844C00B8
:100928008B05E9000442E900FBFF3A0003000700D9
:100938000AF0A70003E0A8000000060081002000DC
:10094800618055000B003D000B00200061FE2F0068
:100958000100E1001D003400828171006101640022
:100968008904D1000884D3000000E800FAFF3A00A7
:100978007100200061006400030070000200600044
:100988000900320061044400E0844C000988A50095
:10099800050032008B05E8006808E10002003A0013
:1009A8008904D1000884D300F20F20000258E10026
:1009B80005003D00C75DDD00F907B20089807500BC
:1009C80008008800000006000BF827001B008800BC
:0C09D800000005000080FA00000006008E
:1004D8000000FA0002000700820304000000000088
:1004E800889FBE008A9FBE008C1F780030000700DE
:1004F8003700330003866C006450E10024003200AA
:100508006420E100270032006150E100220032003F
:100518006120E100210032008B854200EB07B10029
:100528000134B800003AB8000804420089844A003F
:10053800013AB8000030B8008880400009014A003C
:100548000400330000004000818048000201490097
:100558008B05E900C909DD00830170000100320044
:1005680013002000C814DE004814DD004709DE002F
:100578001200B200C808DE000884700024000700DA
:1005880001F0A1000CF0A70003E0A8001900370053
:100598006120E1001B0032000881BE000280BE001D
:1005A800F7FF37006150E100FCFF3A001500370003
:1005B8000084BE003C0007000083BE000485BE0026
:1005C8000280BE0038000700844F75000000060056
:1005D8000280BE006450E100050036006420E1009E
:1005E800020036000968A30001003A000880BE0036
:1005F80002C0A8004F0678004F05BE004F04BE0099
:1006080000000600F0FF2F00F1FF2700F9FF370078
:1006180081002000618055000B003D000B00200088
:1006280061FE2F000100E1001D003400828171008D
:10063800610164008904D1000884D3000000E80047
:10064800FAFF3A00710020006100640003007000A6
:10065800020060000900320061044400E0844C009C
:100668000988A500050032008B05E8006808E1004C
:1006780002003A008904D1000884D300F20F200058
:100688000258E10005003D00C75DDD00F907B20032
:100698008980750008008800000006000BF8270014
:1006A8001B00880000000500C70ADE00F107B20041
:1006B800F50FB20008003200E1CF4200020032001C
:1006C80002E0A80024000500810F7000010032003C
:1006D8000408050044000500810F700002003A007C
:1006E800140005008502E9000000400081C04800B0
:1006F800FCFF3B0002E0A800240005000080FA008F
:0407080000000600E7
:1004B0000000FA00F4FF2F00C4FF07000080FA00DC
:0404C0000000060032
:1003CC000000FA00020007005402040000000000C4
:1003DC00841F7800140007004F00780011003300D0
:1003EC00F0FF2F00838F6C0006003B0004056500B6
:1003FC000A00A7000800370009F0A6001000200032
:10040C0008003700820F5400838F5C000300390012
:10041C001000200001003E000000200009F0A700A1
:10042C000000EA00000006000084BE000600070081
:10043C000083BE000485BE000280BE0002000700DF
:10044C00844F750000000600C70ADE00F107B200F9
:10045C00F50FB20008003200E1CF4200020032007A
:10046C0002E0A80024000500810F7000010032009A
:10047C000408050044000500810F700002003A00DA
:10048C00140005008502E9000000400081C048000E
:10049C00FCFF3B0002E0A800240005000080FA00ED
:0404AC000000060046
:1004C4000000FA0014002000BFFF07000080FA00BB
:0404D400000006001E
:101650000A8020000B002000040009000B1D780008
:041660000000060080
:100A3C003400F8003600F800801F780020002000F9
:100A4C000C000900B01F78008460A9000081BF0071
:100A5C00404088000021EF00A00120000C0009009C
:100A6C004F1078004F0078003600F9003400F90080
:040A7C000040060030
:1009E4003400F8003600F800801F78002000200052
:1009F4000C000900B01F780058002000B71A21002D
:100A04000E20ED00FEFF3A001020ED00FCFF3A003E
:100A1400008020001088EA008400A900A0012000C2
:100A24000C0009004F1078004F0078003600F900E0
:080A34003400F9000040060047
:0200000401F009
:1C000000068300003F000000B38700000F3100000F3300000700000003C0000096
:00000001FF
