:1000000012030400000000000000000000000000D7
:1000100000000000000000000000000000000000E0
:1000200000000000000000000000000000000000D0
:1000300000000000000000000000000000000000C0
:1000400000000000000000000000000000000000B0
:1000500000000000000000000000000000000000A0
:100060000000000000000000000000000000000090
:100070000000000000000000000000000000000080
:100080000000000000000000000000000000000070
:100090000000000000000000000000000000000060
:1000A0000000000000000000000000000000000050
:1000B0000000000000000000000000000000000040
:1000C0000000000000000000000000000000000030
:1000D0000000000000000000000000000000000020
:1000E0000000000000000000000000000000000010
:1000F0000000000000000000000000000000000000
:1001000000000000000000000000000000000000EF
:1001100000000000000000000000000000000000DF
:1001200000000000000000000000000000000000CF
:1001300000000000000000000000000000000000BF
:1001400000000000000000000000000000000000AF
:10015000000000000000000000000000000000009F
:10016000000000000000000000000000000000008F
:10017000000000000000000000000000000000007F
:10018000000000000000000000000000000000006F
:10019000000000000000000000000000000000005F
:1001A000000000000000000000000000000000004F
:1001B000000000000000000000000000000000003F
:1001C000000000000000000000000000000000002F
:1001D000000000000000000000000000000000001F
:1001E000000000000000000000000000000000000F
:1001F00000000000000000000000000000000000FF
:100624004F812000F0FF200020A0B7000000200030
:1006340034A0B700400020004420B7009603020015
:10064400000000008A1F78008B1F78008C1F780040
:10065400F0FF2F00A8A2B700C642A800A842A90034
:10066400A842A900A842A90000042000A0A2B70043
:1006740040002000A2A2B700202A20009040780069
:1006840030CCB30080C06000202A200001487800EC
:10069400A422EF00AA22EF0020002000A6A2B700A7
:1006A4000A21EF00F0FF23000EA1B700000128008B
:1006B40012A1B7001AFF07001AC0B3007AFF07009F
:1006C400CAC0B30078FF0700A1E2A800A042A800B6
:1006D400574D21000E20ED00FEFF3A0000000000FF
:1006E400A002AF0001003700FDFF37008082BF0089
:1006F400904088008560A9009B4080000A8020000B
:100704009FFF07000C8020001B0020001A0020001F
:1007140038FF0700EEFF37004F067800CF0578005A
:080724004F057800FFFF3700CC
:100324000000FA00F1FF0700F0FF0700D882A900DF
:10033400D8A2A900D862A900D842A900D822A9004D
:10034400D802A900DC82A900DCA2A900DC02A90071
:10035400DC22A900DC42A900DC62A900DC42A8007E
:10036400DC62A800E7FF0700A9FF0700E5FF07001C
:10037400A7FF0700E3FF0700A5FF0700DC62A90051
:10038400E0FF0700A2FF0700DEFF0700DC42A90030
:10039400DC02A800DBFF07009DFF0700DC02A900C8
:1003A400DC62A800D7FF0700DC62A900D5FF0700C4
:1003B40097FF0700D3FF0700DC62A800D1FF070006
:1003C40093FF0700DC62A900CEFF0700DC02A8004F
:1003D400DC22A800DC42A800DC62A800C9FF0700F8
:1003E4008BFF0700008120001000A0000080FA00AD
:0403F40000000600FF
:1002F000A76A2A000E20ED00FEFF3A000000000071
:080300000000000000000600EF
:100308000000FA00DC82A800BBFF0700DC82A9001D
:0C031800B9FF07000080FA00000006009A
:10020000570020000E20ED00FEFF3A000000000025
:0402100000000600E4
:10021400572927000E20ED00FEFF3A0000000000E1
:0402240000000600D0
:1004AC000000FA008A80FB0002E0AE00DC02A9002A
:1004BC0002E0AF00DC02A80002C0AE00DC22A90002
:1004CC0002C0AF00DC22A80002A0AE00DC42A900F2
:1004DC0002A0AF00DC42A8000280AE00DC62A900E2
:1004EC000280AF00DC62A800008120001000A60092
:1004FC00DCA2A8001000A700DCA2A9007FFF070067
:10050C000260AE00DC02A9000260AF00DC02A800B1
:10051C000240AE00DC22A9000240AF00DC22A800A1
:10052C000220AE00DC42A9000220AF00DC42A80091
:10053C000200AE00DC62A9000200AF00DC62A80081
:10054C00008120001000A600DCA2A8001000A7006B
:10055C00DCA2A90069FF0700008120001000A600A2
:10056C000200370028FF0700010037002BFF0700AF
:08057C000080FA0000000600F7
:10022800A71020000E20ED00FEFF3A00000000009D
:080238000000000000000600B8
:100584000000FA008A1F78000820EF000A007800B3
:100594006050E10003003D001400200060001500DD
:1005A40000003700000578002CFF070063002000DE
:1005B400040178006018E1000600360083804500DD
:1005C4006180510000804500904878000620ED00CD
:1005D400F8FF370000C2B300804D78000400E20049
:1005E4000C0032000420EF000280450090407800A7
:1005F40000C2B300000CE10002003A000420EC0049
:10060400F9FF37006100510080804500D0C2B3007B
:10061400804878004F0578000080FA00000006004A
:100260000200FA000420EF006514E10006003100EE
:100270000280FB008080450000C2B3008048780007
:100280000460EC00F8FF37000280FB00808045002E
:100290000020EF0080487800E14151000380FB001E
:1002A0000080450000079800A2002000110009000E
:1002B0000285D80000032000808040000E009000DE
:1002C00001487800A2002000110009000285D80032
:1002D000000578006000E10001003A0002003700EC
:1002E0000660ED00EDFF37000080FA000000060018
:1003F8000000FA008A1F78000A0037000A08200067
:10040800110037000A0C20000F0037004A092000AD
:100418000D0037004A0D20000B0037000A082000A5
:10042800090037006150E100F4FF32006250E1003A
:10043800F4FF32006350E100F4FF32006450E10041
:10044800F4FF3200F5FF37006180550000004500D9
:1004580000057800004578001200070000812000A0
:100468001000A1000420EF00020046001004E00084
:1004780007003200020046008A1F78001045780005
:100488006DFF07004F0578000420EC00F6FF3700E9
:10049800008120001000A0004F0578000080FA00BD
:0404A800000006004A
:100240000000FA00008120001000A10097000700C4
:10025000008120001000A0000080FA0000000600CD
:10072C000A8020000B002000090009000B1D780036
:04073C0000000600B3
:0200000401F009
:1C000000068300003F000000B38700000F3100000F3300000700000003C0000096
:00000001FF
