:10000000F4090400000000000000000000000000EF
:1000100000000000000000000000000000000000E0
:1000200000000000000000000000000000000000D0
:1000300000000000000000000000000000000000C0
:1000400000000000000000000000000000000000B0
:1000500000000000000000000000000000000000A0
:100060000000000000000000000000000000000090
:100070000000000000000000000000000000000080
:100080000000000000000000000000000000000070
:100090000000000000000000000000000000000060
:1000A0000000000000000000000000000000000050
:1000B0000000000000000000000000000000000040
:1000C0000000000000000000000000000000000030
:1000D0000000000000000000000000000000000020
:1000E0000000000000000000000000000000000010
:1000F0000000000000000000000000000000000000
:1001000000000000000000000000000000000000EF
:1001100000000000000000000000000000000000DF
:1001200000000000000000000000000000000000CF
:1001300000000000000000000000000000000000BF
:1001400000000000000000000000000000000000AF
:10015000000000000000000000000000000000009F
:10016000000000000000000000000000000000008F
:10017000000000000000000000000000000000007F
:10018000000000000000000000000000000000006F
:10019000000000000000000000000000000000005F
:1001A000000000000000000000000000000000004F
:1001B000000000000000000000000000000000003F
:1001C000000000000000000000000000000000002F
:1001D000000000000000000000000000000000001F
:1001E000000000000000000000000000000000000F
:1001F00000000000000000000000000000000000FF
:1013E8006F832000F0FF200020A0B700000020003D
:1013F80034A0B700400020004420B700B00A020023
:1014080000000000BA0A0200000000008A1F7800ED
:101418008B1F78008C1F7800F0FF2F00A8A2B70060
:10142800C622EF00C702A80085FE07004FFE07008E
:101438001AC0B30089FE0700CAC0B30087FE0700C0
:101448001AC0B30085FE07000020EF006040880046
:10145800604080007000E10016003D008A00200016
:10146800CBFF07008082BF008000EB00E4FD07008F
:10147800D0408800E140880002002000030A2400D0
:10148800A6FB070002002C00F34724005EFC0700BF
:10149800F240800003418000F6FC0700F04088001D
:1014A8000141880011002000C08020001088400001
:1014B800E7FF37000200200003182400F0408000F6
:1014C8000141800050FC070090418800A14188003C
:1014D8002C8220000005BE0096FE07000C8020002C
:1014E8001B0020001A00200098FD07002C82200015
:1014F8001B0020002A00200094FD0700980220000D
:10150800770B2B000E20ED00FEFF3A001020ED00B7
:10151800FCFF3A00CAFF37004F067800CF05780075
:081528004F057800FFFF3700BA
:100E4800A022EF00AA22EF00A222EF0070002000EB
:0C0E5800A4A2B700A1E2A8000000060060
:100D74000000FA001AFE070019FE0700D882A90035
:100D8400D8A2A900D862A900D842A900D822A900F3
:100D9400D802A900DC82A900DCA2A900DC02A90017
:100DA400DC22A900DC42A900DC62A900DC42A80024
:100DB400DC62A80003FE07000FFE070001FE070027
:100DC4000DFE0700FFFD07000BFE0700DC62A90013
:100DD400FCFD070008FE0700FAFD0700DC42A9003D
:100DE400DC02A800F7FD070003FE0700DC02A900EF
:100DF400DC62A800F3FD0700DC62A900F1FD070036
:100E0400FDFD0700EFFD0700DC62A800EDFD070013
:100E1400F9FD0700DC62A900EAFD0700DC02A80076
:100E2400DC22A800DC42A800DC62A800E5FD070083
:100E3400F1FD0700808120001000A0000080FA006E
:040E440000000600A4
:1005E400A76A2A000E20ED00FEFF3A00000000007A
:0805F4000000000000000600F9
:1005C8000000FA00DC82A8000BFF0700DC82A9000B
:0C05D80009FF07000080FA000000060088
:10020000570020000E20ED00FEFF3A000000000025
:0402100000000600E4
:1005FC00572927000E20ED00FEFF3A0000000000F6
:04060C0000000600E4
:100E64000000FA008A80FB0002E0AE00DC02A90068
:100E740002E0AF00DC02A80002C0AE00DC22A90040
:100E840002C0AF00DC22A80002A0AE00DC42A90030
:100E940002A0AF00DC42A8000280AE00DC62A90020
:100EA4000280AF00DC62A800808120001000A60050
:100EB400DCA2A8001000A700DCA2A900C1FD070065
:100EC4000260AE00DC02A9000260AF00DC02A800F0
:100ED4000240AE00DC22A9000240AF00DC22A800E0
:100EE4000220AE00DC42A9000220AF00DC42A800D0
:100EF4000200AE00DC62A9000200AF00DC62A800C0
:100F0400808120001000A600DCA2A8001000A70029
:100F1400DCA2A900ABFD0700808120001000A60020
:100F240002003700B4FD070001003700F6FC07009B
:080F34000080FA000000060035
:10030C00A71020000E20ED00FEFF3A0000000000B8
:08031C000000000000000600D3
:101398008A407800602A200090C06800EFC0600092
:1013A800602A200090C06800602A20000148780068
:1013B800A022A800A72920000E20ED00FEFF3A0079
:1013C8000000000000000000A022A900A002AF0059
:1013D80001003700FDFF37008082BF0000000600D3
:100F3C000600FA008A1F78008B1F78000000200042
:100F4C004047980000002000504798000A0798007E
:100F5C001B0798000E0190009E019000F0FF2F00DF
:100F6C00F1FF2F000010E1000198E10005003A00AC
:100F7C004B8120000C05780079FD070030C0B300D0
:100F8C00FE00370016C0B30060004700630040004D
:100F9C001040780000E0AE000D0037006000470004
:100FAC00630140009280FB00000820000080680074
:100FBC0000497800E1404300D0C2B300004E7800F5
:100FCC0061004600000678000142780001003700FD
:100FDC00064278000E0090009E0090006000E10038
:100FEC006088E10005003A002B8120000C05780098
:100FFC005BFD07000020EF00E00037000E019000C1
:10100C009E0190000000200001F827000010E10074
:10101C000198E10005003A00EB8020000C057800F7
:10102C004FFD070004407800D40037008C1F780077
:10103C008A9FBE000200200003F823000E009000DF
:10104C009E00900041FD07000000E0000060EF00F2
:10105C0001003D000060EC004F05BE004F0678001B
:10106C000040E2000F0032008C1F78008A9FBE0007
:10107C000E0090009E00900002002000031224003D
:10108C00A5FC07004F05BE004F067800000798002E
:10109C0011079800DE4090006500470061C85000C1
:1010AC00E2FF37008C1F78008A9FBE0002002000F0
:1010BC00031224000E0090009E0090008BFC070091
:1010CC000000E0000060EF00010035000060EC0063
:1010DC004F05BE004F0678000040E2000F003200C2
:1010EC008C1F78008A9FBE000E0090009E0090001E
:1010FC00D2CC2C00C3DC230087FC07004F05BE00BC
:10110C004F0678000007980011079800DE40900009
:10111C006500470061C84000E2FF370060014700EE
:10112C003200D000A280D20000079800110798006E
:10113C00600047006300400090407800F0C7B300A7
:10114C0000C1500060004700E300400010C0B30035
:10115C00804878008281FB00600147001200BE00CD
:10116C008301E900030035000000D0008180D2002B
:10117C00FBFF37000007980011079800600047003C
:10118C0063004000010320001080FB000080400041
:10119C00004E780061004600000678005E4090002A
:1011AC006104E100040035005E4090006604E1003B
:1011BC0001003C0006003700E0C2B300004E78008E
:1011CC00610046000006780010C0B300404798004C
:1011DC0065C0B300602CE1002C00320060004700B9
:1011EC00E30040000020EF008048780060004700DA
:1011FC00B001D0002082D2008301D0000482D20042
:10120C006001470032804100A2004A0000079800AC
:10121C0011079800600147003200D000A280D20074
:10122C000007980011079800600047006300400019
:10123C00010320001080FB0000804000004E78006D
:10124C0061004600000678004E4090006004E1000A
:10125C000B003A005E4090000060ED005047980093
:10126C006004E10006003A00E0C2B300004E7800D2
:10127C00610046000006780010C0B300404798009B
:10128C0061C0520080427800D2FF3700F0FF2F007F
:10129C00000046009040780000C3B300000CE10051
:1012AC0003003A006100560000067800F7FF370093
:1012BC00F0FF2F000000460090407800E0C2B30021
:1012CC00000CE10002003A006100560000067800B4
:1012DC005E4090006004E1002500320050C6B3006F
:1012EC00004E780061004600000678005E409000D9
:1012FC006004E10007003D00D0C2B300004E78004E
:10130C006100460000067800DE4090006500470052
:10131C0060C81000DE4190005E4090006904E1005E
:10132C000A0036000380FB00A20020001100090017
:10133C000200D8008000780000032000010040006B
:10134C00004E780061004600000678000380FB0028
:10135C00A2002000110009000200D80000032000A8
:10136C0001004000004E7800610046000006780045
:10137C000020EF00004E78000020EF00CF05780031
:0C138C004F0578000080FA000000060009
:10056C000000FA000A00780000017800E101400068
:10057C008B00780061804500800578001149780077
:10058C001204E0000200320003007800F6FF37008E
:0C059C000A0078000080FA000000060051
:100558000000FA00140020002CFF07000080FA00B9
:040568000000060089
:100214000000FA000200070078010400000000005A
:10022400841F7800140007004F0078001100330089
:10023400F0FF2F00838F6C0006003B00040565006F
:100244000A00A7000800370009F0A60010002000EB
:1002540008003700820F5400838F5C0003003900CC
:100264001000200001003E000000200009F0A7005B
:100274000000EA00000006000084BE00060007003B
:100284000083BE000485BE000280BE000200070099
:10029400844F750000000600C70ADE00F107B200B3
:1002A400F50FB20008003200E1CF42000200320034
:1002B40002E0A80024000500810F70000100320054
:1002C4000408050044000500810F700002003A0094
:1002D400140005008502E9000000400081C04800C8
:1002E400FCFF3B0002E0A800240005000080FA00A7
:0402F4000000060000
:100324000000FA0002000700A80204000000000018
:10033400889FBE008A9FBE008C1F78003000070093
:100344003700330003866C006450E100240032005F
:100354006420E100270032006150E10022003200F5
:100364006120E100210032008B854200EB07B100DF
:100374000134B800003AB8000804420089844A00F5
:10038400013AB8000030B8008880400009014A00F2
:10039400040033000000400081804800020149004D
:1003A4008B05E900C909DD008301700001003200FA
:1003B40013002000C814DE004814DD004709DE00E5
:1003C4001200B200C808DE00088470002400070090
:1003D40001F0A1000CF0A70003E0A8001900370009
:1003E4006120E1001B0032000881BE000280BE00D3
:1003F400F7FF37006150E100FCFF3A0015003700B9
:100404000084BE003C0007000083BE000485BE00DB
:100414000280BE0038000700844F7500000006000B
:100424000280BE006450E100050036006420E10053
:10043400020036000968A30001003A000880BE00EB
:1004440002C0A8004F0678004F05BE004F04BE004E
:1004540000000600F0FF2F00F1FF2700F9FF37002E
:1004640081002000618055000B003D000B0020003E
:1004740061FE2F000100E1001D0034008281710043
:10048400610164008904D1000884D3000000E800FD
:10049400FAFF3A007100200061006400030070005C
:1004A400020060000900320061044400E0844C0052
:1004B4000988A500050032008B05E8006808E10002
:1004C40002003A008904D1000884D300F20F20000E
:1004D4000258E10005003D00C75DDD00F907B200E8
:1004E4008980750008008800000006000BF82700CA
:1004F4001B00880000000500C70ADE00F107B200F7
:10050400F50FB20008003200E1CF420002003200D1
:1005140002E0A80024000500810F700001003200F1
:100524000408050044000500810F700002003A0031
:10053400140005008502E9000000400081C0480065
:10054400FCFF3B0002E0A800240005000080FA0044
:04055400000006009D
:1002F8000000FA00F4FF2F00C4FF07000080FA0096
:0403080000000600EB
:100B54000000FA008A1F78000A0037000A08200003
:100B6400110037000A0C20000F0037004A0920004A
:100B74000D0037004A0D20000B0037000A08200042
:100B8400090037006150E100F4FF32006250E100D7
:100B9400F4FF32006350E100F4FF32006450E100DE
:100BA400F4FF3200F5FF3700618055000000450076
:100BB4000005780000457800A90007008081200026
:100BC4001000A1000420EF00020046001004E00021
:100BD40007003200020046008A1F780010457800A2
:100BE40070FE07004F0578000420EC00F6FF370084
:100BF400808120001000A0004F0578000080FA00DA
:040C040000000600E6
:1005A8000000FA00808120001000A1002B02070043
:1005B800808120001000A0000080FA0000000600E2
:100C08000000FA0002000700B60604000000000019
:100C18000400E20006003A000005EB000200E200D2
:100C28000F003E000000E200270032000C003700F1
:100C3800A10088000200E2000400350008003C0022
:100C48000000E200200032000500370060001000BC
:100C5800E080180002003B0001F02C001A00370069
:100C68000084BE006011B8006B0920000982CF0023
:100C7800020039000882CF000441B00069425200E6
:100C88000E00320008003B0082817100610164009F
:100C98008904D1000884D3008B05E8000442E800E9
:100CA800F9FF3A00050037000804440089844C0025
:100CB8008B05E9000442E900FBFF3A000300070046
:100CC8000AF0A70003E0A800000006008100200049
:100CD800618055000B003D000B00200061FE2F00D5
:100CE8000100E1001D00340082817100610164008F
:100CF8008904D1000884D3000000E800FAFF3A0014
:100D080071002000610064000300700002006000B0
:100D18000900320061044400E0844C000988A50001
:100D2800050032008B05E8006808E10002003A007F
:100D38008904D1000884D300F20F20000258E10092
:100D480005003D00C75DDD00F907B2008980750028
:100D580008008800000006000BF827001B00880028
:0C0D6800000005000080FA0000000600FA
:100610000000FA00020007003A0404000000000095
:10062000889FBE008A9FBE008C1F78003E00070096
:100630004500330003866C006450E1002E00320058
:100640006420E100330032006150E1002F003200ED
:100650006120E1003100320085855500EB07B000D4
:1006600009002000080420000500370008044400A9
:1006700089844C000A0031000603430087834B0045
:100680000001530081815B00F8FF33000283BE004C
:100690001000A8000804440089844C00F6FF3900CB
:1006A000C639DD0083017300010032001300200011
:1006B0008904D1000884D3000998A3000500320002
:1006C0000800A7000600A8008904D1000884D30010
:1006D0008B05E8008904D1000884D3000001EB00F9
:1006E0000281D2002800070001F0A1000CF0A70051
:1006F00003E0A8001D0037006420E1001F00320065
:100700000881BE000280BE00F7FF37006120E100D3
:100710001A0032006000B800F3FF3700000020002C
:1007200001F82700F0FF37000084BE003C000700FE
:100730000083BE000485BE000280BE0038000700B2
:10074000844F7500000006000280BE006450E10086
:10075000050036006420E100020036000968A300AD
:1007600001003A000880BE0002C0A8004F067800D1
:100770004F05BE004F04BE0000000600F0FF2F0032
:10078000F1FF2700F9FF370081002000618055004C
:100790000B003D000B00200061FE2F000100E10076
:1007A0001D00340082817100610164008904D10060
:1007B0000884D3000000E800FAFF3A00710020002E
:1007C0006100640003007000020060000900320054
:1007D00061044400E0844C000988A5000500320053
:1007E0008B05E8006808E10002003A008904D100A6
:1007F0000884D300F20F20000258E10005003D00FC
:10080000C75DDD00F907B200898075000800880027
:10081000000006000BF827001B0088000000050000
:10082000C70ADE00F107B200F50FB200080032007F
:10083000E1CF42000200320002E0A80024000500DF
:10084000810F70000100320004080500440005001B
:10085000810F700002003A00140005008502E900D3
:100860000000400081C04800FCFF3B0002E0A800FF
:0C087000240005000080FA0000000600D3
:10087C000000FA0002000700A605040000000000BA
:10088C00889FBE008A9FBE008C1F7800590007000D
:10089C00600033006450E1004F0032006420E1003E
:1008AC005200320003826C0007003B000905D000A7
:1008BC000306D000820F54000C065D0002003900C4
:1008CC000200320039008800C30088008582550080
:1008DC0004003D000003FD008103FD008502EA00D9
:1008EC008B854200840F720002003B0060001000F8
:1008FC00E08018006011B8000005EB007A28E100D8
:10090C000A00390006008800C75DDD00F707B20059
:10091C00878075002D003700828171002A008800C5
:10092C00610560008180D1000080D3008502E90060
:10093C00F9FF3B00060440008784480002003B009E
:10094C0060041400E0841C000988A3000700320036
:10095C008A81710082817100610164008904D10077
:10096C000884D3008B05E800170037000978A30032
:10097C0013003A001600E200130034008B05E90066
:10098C000804440089844C000A4474000978A300CC
:10099C000D003A001600E200070034008B05E90058
:1009AC000804440089844C0001003A000B0020002C
:1009BC000978A300F7FF32000001EB0002003700BA
:1009CC00828171002A008800220007000CF0A70029
:1009DC0003E0A800180037006420E10002003A0090
:1009EC00838F6C00180033000881BE000280BE00AB
:1009FC00110037000084BE003C0007000083BE00DD
:100A0C000485BE000280BE0038000700844F7500CC
:100A1C00000006000280BE006450E10005003600B4
:100A2C006420E100020036000968A30001003A00CE
:100A3C000880BE0002C0A8004F0678004F05BE001B
:100A4C004F04BE0000000600F0FF2F00F1FF27004E
:100A5C00F9FF370081002000618055000B003D003C
:100A6C000B00200061FE2F000100E1001D0034008E
:100A7C0082817100610164008904D1000884D30073
:100A8C000000E800FAFF3A007100200061006400E9
:100A9C000300700002006000090032006104440091
:100AAC00E0844C000988A500050032008B05E800A5
:100ABC006808E10002003A008904D1000884D300E0
:100ACC00F20F20000258E10005003D00C75DDD007B
:100ADC00F907B20089807500080088000000060044
:100AEC000BF827001B00880000000500C70ADE0079
:100AFC00F107B200F50FB20008003200E1CF42005E
:100B0C000200320002E0A80024000500810F7000F2
:100B1C00010032000408050044000500810F70003C
:100B2C0002003A00140005008502E90000004000B4
:100B3C0081C04800FCFF3B0002E0A8002400050037
:080B4C000080FA000000060021
:101560000A8020000B0020001A0009000B1D7800E3
:041570000000060071
:101574000180200080A928000B000900B018780021
:04158400000006005D
:10153000546500006D700000657200006174000069
:0815400075720000610000005B
:04154800000000009F
:08154C00494E000046000000BA
:041554003000000063
:081558004E6100004E0000008E
:0200000401F009
:1C000000068300003F000000B38700000F3100000F3300000700000003C0000096
:00000001FF
