:1000000000010400000000000000000000000000EB
:1000100000000000000000000000000000000000E0
:1000200000000000000000000000000000000000D0
:1000300000000000000000000000000000000000C0
:1000400000000000000000000000000000000000B0
:1000500000000000000000000000000000000000A0
:100060000000000000000000000000000000000090
:100070000000000000000000000000000000000080
:100080000000000000000000000000000000000070
:100090000000000000000000000000000000000060
:1000A0000000000000000000000000000000000050
:1000B0000000000000000000000000000000000040
:1000C0000000000000000000000000000000000030
:1000D0000000000000000000000000000000000020
:1000E0000000000000000000000000000000000010
:1000F0000000000000000000000000000000000000
:1001000000000000000000000000000000000000EF
:1001100000000000000000000000000000000000DF
:1001200000000000000000000000000000000000CF
:1001300000000000000000000000000000000000BF
:1001400000000000000000000000000000000000AF
:10015000000000000000000000000000000000009F
:10016000000000000000000000000000000000008F
:10017000000000000000000000000000000000007F
:10018000000000000000000000000000000000006F
:10019000000000000000000000000000000000005F
:1001A000000000000000000000000000000000004F
:1001B000000000000000000000000000000000003F
:1001C000000000000000000000000000000000002F
:1001D000000000000000000000000000000000001F
:1001E000000000000000000000000000000000000F
:1001F00000000000000000000000000000000000FF
:100200008F812000F0FF200020A0B7000000200018
:1002100034A0B700400020004420B700AC01020029
:1002200000000000B601020000000000F0FF2F00F7
:10023000A8A2B700D222EF00D622EF00C622EF001C
:10024000CA22EF0010002000DEA2B700D622A800CC
:10025000D642A800D662A800D602A900E002AE00ED
:100260000E0037000020EF00A0408800E002AF0041
:10027000030037000020EF00A0408800070037008F
:10028000D622A800D642A800D662A800D602A900AD
:100290000020EF00A0408800F0FF37000020EF00B2
:1002A000B040880021032000608120001008E10098
:1002B00014003900D602A900A0408000C100DD0072
:1002C000008020000100400010007800CAA2B700A2
:1002D00028002000475824000E20ED00FEFF3A00C1
:1002E0001020ED00FCFF3A000000000000000000BC
:1002F000D602A80011002000608120001088400074
:10030000E8FF3700110020004081200010884000E5
:10031000A04080006A00E10002003A000020EF00E7
:0C032000A0408800C9FF3700FFFF370035
:100358000A8020000B0020000B0009000B1D78000C
:04036800000006008B
:10036C0001802000601928000A000900B0187800EC
:04037C000000060077
:10032C0040000000790000002400000030000000B4
:10033C00190000001200000002000000780000000C
:08034C00000000001000000099
:0403540000000000A5
:0200000401F009
:1C000000068300003F000000B38700000F3100000F3300000700000003C0000096
:00000001FF
