:1000000000010400000000000000000000000000EB
:1000100000000000000000000000000000000000E0
:1000200000000000000000000000000000000000D0
:1000300000000000000000000000000000000000C0
:1000400000000000000000000000000000000000B0
:1000500000000000000000000000000000000000A0
:100060000000000000000000000000000000000090
:100070000000000000000000000000000000000080
:100080000000000000000000000000000000000070
:100090000000000000000000000000000000000060
:1000A0000000000000000000000000000000000050
:1000B0000000000000000000000000000000000040
:1000C0000000000000000000000000000000000030
:1000D0000000000000000000000000000000000020
:1000E0000000000000000000000000000000000010
:1000F0000000000000000000000000000000000000
:1001000000000000000000000000000000000000EF
:1001100000000000000000000000000000000000DF
:1001200000000000000000000000000000000000CF
:1001300000000000000000000000000000000000BF
:1001400000000000000000000000000000000000AF
:10015000000000000000000000000000000000009F
:10016000000000000000000000000000000000008F
:10017000000000000000000000000000000000007F
:10018000000000000000000000000000000000006F
:10019000000000000000000000000000000000005F
:1001A000000000000000000000000000000000004F
:1001B000000000000000000000000000000000003F
:1001C000000000000000000000000000000000002F
:1001D000000000000000000000000000000000001F
:1001E000000000000000000000000000000000000F
:1001F00000000000000000000000000000000000FF
:10020000AF802000F0FF200020A0B70000002000F9
:1002100034A0B700400020004420B7005A0102007B
:10022000000000006401020000000000F0FF2F0049
:10023000A8A2B700C622EF00818020000020EF00B6
:100240008048780080802000104078006804E10039
:1002500012003100808020009080FB000080200090
:1002600001004000104078000080FB00CAA2B700E7
:1002700028052000F71626000E20ED00FEFF3A00AC
:100280001020ED00FCFF3A000000000011C0B30098
:100290008080200010C84000EAFF3700E6FF3700EA
:0402A000FFFF370025
:1002B4000A8020000B002000040009000B1D7800B8
:0402C4000000060030
:1002C800018020002015280003000900B0187800DC
:0402D800000006001C
:1002A400010200000408000010200000408000004B
:0200000401F009
:1C000000068300003F000000B38700000F3100000F3300000700000003C0000096
:00000001FF
